:098981002F2A2E6D703300000056
:1084CB004203B400004203B60000420374000041B3
:0B84DB0003B80241020A5541023300C1
:0E88C20000007F3D7EE17D3EDDFEDEFCDFFA44
:0188D0002285
:0489BA007F26DFFE37
:0189BE002296
:0E88D10000007F047E0C7D32DDFEDEFCDFFA4F
:0188DF002276
:1087AB005391C15392C15395C05396C053B1D353F8
:0987BB00B2D35393C15394C122BF
:1084FC009003B97401F0A3F0E4A3F0A3F0A3F0A3EC
:10850C00F0A37402F07B017A0379B91275AF7D0385
:0F851C007F01127AFAE5A254F34404F5A2D29239
:01852B00222D
:10852C009003B97401F0A3F0E4A3F0A3F0A3F0A3BB
:10853C00F0A37403F07B017A0379B91275AF7D0354
:0F854C007F01127AFAE5A254F34404F5A2D29209
:01855B0022FD
:1085E8009003B97401F0A3F0E4A3F0A3F0A3F0A3FF
:1085F800F0A3F07B017A0379B91275AF7D037F018F
:0A860800127AFA53A2F3D294D2B50D
:018612002245
:10447600E4FFFE12870E9003B8EFF01287AB1284AA
:10448600FCD2AF7F01128890128926126709128327
:10449600BF12863D7B017A02790BE4FF12887D12FA
:1044A6004863900376E4F0A3EFF01285E87F0112EB
:1044B6008890127B4C12852C7F011288909003BC49
:1044C60074FFF0A37489F0A37481F09003B8E0FF41
:1044D60004F0EF3395E0FEFDFC9003BF1236149016
:1044E60003C37401F0FB7A03797812407DEF600311
:1044F6000248481283BFE4FBFD7F0412724E7B0123
:10450600E4FD7F1812724E7B02E4FD7F2C12724E80
:104516007B03E4FD7F4012724E7B09E4FD7F54125B
:10452600724E7B04E4FD7F6812724E7B057D037F2D
:104536001812724E7B067D037F4A12724E9003B8A4
:10454600E0FB3395E0FA9003BD7403F0A37410F01A
:104556007D037F2C126E467B0A7D067F0412724E07
:104566007B0B7D067F1812724E7B0C7D067F2C120C
:10457600724E7B0D7D067F4012724E7B047D067F58
:104586005412724E90020AE075F064A4FFAEF07CFD
:10459600007D9D1232A9C374649FFBE49EFA9003CA
:1045A600BD7403F0A37410F07D067F5E126E469014
:1045B60003C0123639000001409003C47401F0A311
:1045C6007402F0A37434F09003ABE0FCA3E0FDA307
:1045D600E0FEA3E0FF7B017A03797812004E900398
:1045E60074EEF0A3EFF04E70030244C31285E87F29
:1045F60001128890C291900374E0FEA3E07805CE84
:10460600C313CE13D8F9F0EE900374F0E49003B41C
:10461600F0A3F0900374E0FEA3E0FFC39003B5E0BF
:104626009F9003B4E09E5060D2B530B5FDE4900390
:10463600B6F0A3F09003B6E0FCA3E0FDC39420EC33
:10464600940050349003B4E0FEA3E07805C333CE63
:1046560033CED8F92DFFEC3EFE74342FF58274026A
:104666003EF583E0FF1289539003B7E004F070C46F
:104676009003B6E004F080BC9003B5E004F07093BC
:104686009003B4E004F0808BD2912081471288D148
:1046960090020AE0C39404748094804004E024FEEF
:1046A600F090020AE0FF12898A90020AE075F0642F
:1046B600A4FFAEF07C007D9D1232A9C374649FFBFB
:1046C600E49EFA9003BD7403F0A37410F07D067F98
:1046D6005E126E462085471288D190020AE0D39476
:1046E60099748094805004E02402F090020AE0FF5E
:1046F60012898A90020AE075F064A4FFAEF07C008D
:104706007D9D1232A9C374649FFBE49EFA9003BD9B
:104716007403F0A37410F07D067F5E126E46D2829B
:1047260012852C7F011288902082291288D120823E
:10473600239003B8E0FF3395E0FED3EF9402EE64D6
:104746008094804007E024FEF00247EBE49003B833
:10475600F00247EBD28320830E1288D12083081201
:1047660088D1208302807E3084030245B51288D129
:104776002084030245B51283F67B07E4FD7F2C12E5
:10478600724E7B08E4FD7F4012724E7B09E4FD7F8A
:104796005412724E2084061288D120842020820E64
:1047A6001288D13082089002337401F0800F208382
:1047B600E31288D13083DD9002337402F090023325
:1047C600E064017023F09003B8E0FF3395E0FED378
:1047D600EF9402EE648094804006E024FEF08005AB
:1047E600E49003B8F0E48009900233E064027014A8
:1047F600F0FFFE1287DD9003B8E0FDE4FFFE1286AF
:10480600A00244C31288D11283F6E4FBFD7F041292
:10481600724E7B01E4FD7F1812724E7B02E4FD7F2F
:104826002C12724E7B03E4FD7F4012724E7B09E42C
:10483600FD7F5412724E7B04E4FD7F6812724E02B5
:1048460045B59003B8E024FEF0E4FFFE1287DD9044
:0D48560003B8E0FDE4FFFE1286A00244C39B
:104E3600EFD394077480948040037FFF221231954C
:104E4600FED394037480948040037FFF22EF704466
:104E5600EE700B9000011231AEF45293529412315F
:104E6600956401700B9000011231AE4293F4529496
:104E7600123195FE6402700A9000011231AE42931F
:104E86004294EE6403700D9000011231AEFEF452AE
:104E960093EE4294EF64017046123195FE700B90CA
:104EA60000011231AEF452915292EE6401700B90F1
:104EB60000011231AE4291F45292123195640270A1
:104EC6000A9000011231AE4291429212319564036A
:104ED600700D9000011231AEFEF45291EE4292EF47
:104EE60064027046123195FE700B9000011231AECD
:104EF600F452955296EE6401700B9000011231AE99
:104F06004295F452961231956402700A900001128D
:104F160031AE429542961231956403700D900001B0
:104F26001231AEFEF45295EE4296EF6403704612CD
:104F36003195FE700B9000011231AEF452B152B2AF
:104F4600EE6401700B9000011231AE42B1F452B220
:104F56001231956402700A9000011231AE42B142DC
:104F6600B21231956403700D9000011231AEFEF459
:104F760052B1EE42B2EF64047046123195FE700BE8
:104F86009000011231AEF452B352B4EE6401700BCC
:104F96009000011231AE42B3F452B412319564025C
:104FA600700A9000011231AE42B342B412319564D8
:104FB60003700D9000011231AEFEF452B3EE42B40E
:104FC600EF64057046123195FE700B9000011231A8
:104FD600AEF452C952CAEE6401700B900001123150
:104FE600AE42C9F452CA1231956402700A900001A9
:104FF6001231AE42C942CA1231956403700D900057
:10500600011231AEFEF452C9EE42CAEF6406704692
:10501600123195FE700B9000011231AEF452CB5254
:10502600CCEE6401700B9000011231AE42CBF4520B
:10503600CC1231956402700A9000011231AE42CB57
:1050460042CC1231956403700D9000011231AEFE10
:10505600F452CBEE42CCEF64077049123195FF7ED5
:1050660000700B9000011231AEF452E152E2EF648F
:10507600014E700B9000011231AE42E1F452E21281
:1050860031956402700A9000011231AE42E142E2AB
:105096001231956403700D9000011231AEFFF45287
:0750A600E1EF42E27F00226E
:1086130040000000009548000001AA874140000087
:1086230000FF7A00000000005800000000FF510026
:0A863300000000FF5900000000FFE6
:0B895600EF1FAC0670011E4C70F622F3
:1068C50090053D123614900541EBF0A3EAF0A3E9DB
:0168D500F0D2
:1068D600E4781CF608F618F690053DE0FCA3E0FD0A
:1068E600A3E0FEA3E0FFEC4D4E4F603EE47B0AFAC8
:1068F600F9F890053DA3A3A3E0123448EB2430FF3A
:10690600781CE62408F8A607781C0690053DE0FCEE
:10691600A3E0FDA3E0FEA3E0FFE47B0AFAF9F81288
:10692600344890053D12361480AE781CE608F6E42D
:1069360018F6781DE6FF18E6FEC39F5028EEFDC345
:10694600EF9DFF74072FF8E6FF900541E0FBA3E0FB
:10695600FAA3E0F9781CE6F582758300EF1232207F
:10696600781C0680CD781CE67017900541E0FBA3E5
:10697600E0FAA3E0F9E606F5827583007430123278
:1069860020900541E0FBA3E0FAA3E0F9781CE6F5C8
:0869960082758300E402322047
:0B6FB40090056EEBF0A3EAF0A3E9F0FB
:106FBF0078211236200000000078251236200000BC
:106FCF0000011288687829EFF608F6782AE6D3943C
:106FDF000074809480407478211235ABC000C001DA
:106FEF00C002C003782AE624FFFFE434FFFE9005B9
:106FFF006EE0FBA3E0FAA3E0F98F828E831231AE2D
:10700F00FF3395E0FEEF24D0FFEE34FFFE3395E023
:10701F00FDFC78251235AB1233BDD003D002D00161
:10702F00D000EB2FFFEA3EFEE93DFDE83CFC782166
:10703F00123608782512359FE47B0AFAF9F81233D5
:10704F00BD7825123608782A168080782102359F60
:1087F6009003CDE0FBA3E475F0011232F5A9F0FA7F
:04880600123195FF97
:03880A0002899C44
:10880D00900444E0FBA3E475F0011232F5A9F0FAEF
:04881D00EF12320E16
:0388210002896168
:0B710A0090044FEBF0A3EAF0A3E9F0C3
:10711500E4A3F0D2927FFF12880AC29290044FE056
:10712500FBA3E0FAA3E0F912880690044FE0FBA365
:10713500E0FAA3E0F99000011231AEFF12880A903F
:10714500044FE0FBA3E0FAA3E0F99000021231AE90
:10715500FF12880A90044FE0FBA3E0FAA3E0F99040
:1071650000031231AEFF12880A90044FE0FBA3E042
:10717500FAA3E0F99000041231AEFF12880A9004D8
:107185004FE0FBA3E0FAA3E0F99000051231AEFF52
:1071950012880A128821900452E004F0EFF4700A74
:0A71A500E0C394647480948040E914
:0171AF0022BD
:1079470078BC7C037D017BFF7A8679137E007F06F6
:1079570012316FD292E49003BBF09003BBE0C39463
:107967000F74809480500D7FFF12880A9003BBE04C
:1079770004F080E6C292E49003BAF07B017A0379BF
:10798700BC12710A9003BAE004F0E0646470037FEC
:107997000122EF640170E4D2927FFF12880A7F0010
:0179A70022BD
:10855C0078BA7C037D017BFF7A8679197E007F06D1
:10856C0012316FC2927B017A0379BA12710A9005AB
:0F857C007DEFF0D2927FFF12880A90057DE0FF1D
:01858B0022CD
:1082250078BB7C037D017BFF7A86791F7E007F0604
:1082350012316FC292E49003BAF07B017A0379BBE5
:1082450012710A9003BAE004F0E0646470037F02DF
:0D82550022EF70E6D2927FFF12880A7F00B0
:0182620022F9
:1082630078BA7C037D017BFF7A8679257E007F06C1
:1082730012316FC2927B017A0379BA12710A1288A2
:108283002190057EEFF0128821128821128821D2D5
:0D829300927FFF12880A90057EE05440FFA4
:0182A00022BB
:0C89260012794712855C128263028225E0
:106341009003C91236149003CDEBF0A3EAF0A3E950
:01635100F05B
:10635200E49003D2F078D37C037D017BFF7A8679C7
:106362002BFE7F0612316F90057DE064056004A369
:10637200E070199003C9E0FCA3E0FDA3E0FEA3E0F6
:10638200FF78091234FE9003C91236149003C9E053
:10639200FCA3E0FDA3E0FEA3E0FF9003D4123614B9
:1063A200C292E49003D1F07B017A0379D312710A8D
:1063B2009003D0EFF0A3E004F0E064647006900371
:1063C200D0E0FF229003D0E070DD9003D2F0900382
:1063D200D2E0C3940A74809480500B1288219003F7
:1063E200D2E004F080E87FFE12880AE49003D2F043
:1063F2009003D2E0C394407480948050211287F6B7
:106402001287F61287F61287F61287F61287F612AD
:1064120087F61287F69003D2E004F00263F27FFF60
:1064220012880A7FFF12880A1288219003D0EFF0A7
:10643200541F64056005D2927F0322128821EFF473
:0B64420070F9D2927FFF12880A7F00E1
:01644D00222C
:1067E900900440123614900444EBF0A3EAF0A3E9B4
:0167F900F0AF
:1067FA0078497C047D017BFF7A8679317E007F06A9
:10680A0012316F90057DE064056004A3E070199071
:10681A000440E0FCA3E0FDA3E0FEA3E0FF78091238
:10682A0034FE900440123614900440E0FCA3E0FDCC
:10683A00A3E0FEA3E0FF90044A123614C292E49049
:10684A000448F07B017A04794912710A900448E0FD
:10685A0004F0E0646470037F0422EF70E61288217A
:10686A00EF64FE70F8900447F0900447E0C3944048
:10687A0074809480503512882112880D12880D1266
:10688A00880D12880D12880D12880D12880D900439
:10689A0044E0FBA3E475F0011232F5A9F0FAEF1215
:1068AA00320E900447E004F00268731288211288BD
:0A68BA0021D2927FFF12880A7F00AE
:0168C40022B1
:0652FC009004E0123614DC
:105302009004ED123639000000009004F112363993
:105312000000000078F57C047D017BFF7A867937F6
:105322007E007F0612316F9004E8E0F9A3E0FAA351
:10533200E09004FBC9F0A3EAF0A3E9F090057DE058
:1053420064056004A3E070199004E4E0FCA3E0FDAE
:10535200A3E0FEA3E0FF78091234FE9004E41236C3
:10536200149004E4E0FCA3E0FDA3E0FEA3E0FF90C0
:1053720004F6123614C292E49004ECF07B017A0433
:1053820079F512710A9004EBEFF0A3E004F0E06407
:105392006470069004EBE0FF229004EBE070DD9075
:1053A20004ED12363900000000E47F0AFEFDFC9095
:1053B20004EDE0F8A3E0F9A3E0FAA3E0FBC31234A2
:1053C200DA50241288219004EDE0FCA3E0FDA3E072
:1053D200FEA3E02401FFE43EFEE43DFDE43CFC903C
:1053E20004ED12361480C29004F112363900000026
:1053F200009004E0E0FCA3E0FDA3E0FEA3E0FF9048
:1054020004F1E0F8A3E0F9A3E0FAA3E0FBC312344D
:10541200DA40030254EE7FFC12880A9004ED123641
:105422003900000000E47F40FEFDFC9004EDE0F84E
:10543200A3E0F9A3E0FAA3E0FBC31234DA505290DE
:1054420004E81287F99004E81287F99004E81287B9
:10545200F99004E81287F99004E81287F99004E8B9
:105462001287F99004E81287F99004E81287F990FC
:1054720004EDE0FCA3E0FDA3E0FEA3E02401FFE4D1
:105482003EFEE43DFDE43CFC9004ED123614025471
:10549200277FFF12880A7FFF12880A128821900450
:1054A200EBEFF0541F64056005D2927F032212884D
:1054B20021EFF470F99004FBE0F9A3E0FAA3E09085
:1054C20004E8C9F0A3EAF0A3E9F09004F1E0FCA338
:1054D200E0FDA3E0FEA3E02401FFE43EFEE43DFD87
:1054E200E43CFC9004F11236140253F37FFD12885F
:1054F2000A128821EFF470F9D2927FFF12880A7F94
:0155020000A8
:015503002285
:107C3A00EFFBD39401748094805009EB7004C2A9BD
:107C4A008002D2A9EDFF7E00D39403748094805001
:107C5A0029EF700553B7FDC2B9EF64014E700553A1
:107C6A00B7FDD2B9EF64024E700543B702C2B9EF4D
:0D7C7A0064034E700543B702D2B97F0022AB
:107C8700EFFBD39401748094805009EB7004C2AB6E
:107C97008002D2ABEDFF7E00D394037480948050B2
:107CA70029EF700553B7F7C2BBEF64014E70055358
:107CB700B7F7D2BBEF64024E700543B708C2BBEFFC
:0D7CC70064034E700543B708D2BB7F002256
:10872900EFD3940174809480500DEF25E025E0FF8C
:0A873900E5AF54FB4FF5AFE4FF225B
:10874300EFD3940174809480500DEFC43354E0FF51
:0A875300E5AF54DF4FF5AFE4FF225D
:1086BD00EFD3940174809480500EEFC4333354C0C3
:0B86CD00FFE5AF54BF4FF5AFE4FF2204
:107CD400EFFBD39401748094805009EB7004C2A824
:107CE4008002D2A8EDFF7E00D39403748094805068
:107CF40029EF700553B7FEC2B8EF64014E70055307
:107D0400B7FED2B8EF64024E700543B701C2B8EFB4
:0D7D140064034E700543B701D2B87F002212
:107D2100EFFBD39401748094805009EB7004C2AAD4
:107D31008002D2AAEDFF7E00D39403748094805018
:107D410029EF700553B7FBC2BAEF64014E700553BA
:107D5100B7FBD2BAEF64024E700543B704C2BAEF63
:0D7D610064034E700543B704D2BA7F0022C0
:1087C400EFD3940174809480500CEFC454F0FFE50F
:0987D4008F54EF4FF58FE4FF22F2
:10875D00EFD3940174809480500DEFC43354E0FF37
:0A876D00E58F54DF4FF58FE4FF2283
:1086D800EFD3940174809480500EEFC4333354C0A8
:0B86E800FFE58F54BF4FF58FE4FF2229
:107D6E00EFFBD39401748094805009EB7004C2AD84
:107D7E008002D2ADEDFF7E00D394037480948050C8
:107D8E0029EF700553B7DFC2BDEF64014E70055386
:107D9E00B7DFD2BDEF64024E700543B720C2BDEF10
:0D7DAE0064034E700543B720D2BD7F002254
:1079A800EF30E10543E620800353E6DFEF30E005E2
:1079B80043E610800353E6EFEDFF7E00D394037493
:1079C800809480502DEF700653B6DF53B5DFEF6417
:1079D800014E700653B6DF43B520EF64024E7006C1
:1079E80043B62053B5DFEF64034E700643B6204319
:0579F800B5207F002214
:10780F00EFD394017480948040037FFF2243BA80AA
:10781F00EF64017012ED90FE817006E0547FF080EE
:10782F0011E04480F0800BEF700890FE83E05487E6
:10783F004DF0EBFF7E00D3940374809480502DEFB6
:10784F00700653B6DF53B5DFEF64014E700653B6C3
:10785F00DF43B520EF64024E700643B62053B5DF09
:0F786F00EF64034E700643B62043B5207F00221E
:107DBB00EFFBD39401748094805009EB7004C2AC38
:107DCB008002D2ACEDFF7E00D3940374809480507C
:107DDB0029EF700553B7EFC2BCEF64014E7005532A
:107DEB00B7EFD2BCEF64024E700543B710C2BCEFC5
:0D7DFB0064034E700543B710D2BC7F002218
:107B9E00EFD39401748094805007E5AF54FE4FF5F7
:107BAE00AFEDFF7E00D3940374809480502DEF7060
:107BBE000653B6FE53B5FEEF64014E700653B6FE85
:107BCE0043B501EF64024E700643B60153B5FEEFA6
:0E7BDE0064034E700643B60143B5017F0022DA
:1079FD00EFD3940174809480500EEF33333354F8E9
:107A0D00FFE5AF54F74FF5AFEDFF7E00D394037450
:107A1D00809480502DEF700653EEFE53DFFEEF6421
:107A2D00014E700653EEFE43DF01EF64024E700609
:107A3D0043EE0153DFFEEF64034E700643EE014348
:057A4D00DF017F0022B3
:107AA700EFD3940174809480500CEFC454F0FFE539
:107AB700AF54EF4FF5AFEDFF7E00D394037480947E
:107AC70080502DEF700653EEFD53DFFDEF64014E3E
:107AD700700653EEFD43DF02EF64024E700643EE7D
:107AE7000253DFFDEF64034E700643EE0243DF02ED
:037AF7007F0022EB
:107AFA00EFD3940174809480500BEF25E0FFE5AF3B
:107B0A0054FD4FF5AFEDFF7E00D39403748094804B
:107B1A00502DEF700653B6FD53B5FDEF64014E705C
:107B2A000653B6FD43B502EF64024E700643B60231
:107B3A0053B5FDEF64034E700643B60243B5027FA8
:027B4A00002217
:10772800EBF582758300D39403748094805030E520
:1077380082700553B77FC2BFE58264014583700537
:1077480053B77FD2BFE58264024583700543B78093
:10775800C2BFE58264034583700543B780D2BFEF9B
:1077680014601114601214601314601D2404702432
:107778008DDA80208DDB801C8DDC801843BA8090E8
:10778800FD54EDF053BA7F800BED5401FFE5D95459
:07779800FE4FF5D97F00222E
:1000030043BA8090FA10E054F0F0EDD39403748077
:100013009480500BE0FEED25E025E0FDEE4DF0EB86
:10002300D3940374809480500690FA10E04BF0EF61
:10003300640190FA107006E04480F08004E0547F7D
:07004300F053BA7F7F002299
:107E550043BA8090FA00E054F0F0EDD394037480B7
:107E65009480500BE0FEED25E025E0FDEE4DF0EBB6
:107E7500D3940374809480500690FA00E04BF0EFA1
:107E8500640190FA007006E04480F08004E0547FBD
:077E9500F053BA7F7F0022C9
:107E9C0043BA8090FA20E054F0F0EDD39403748050
:107EAC009480500BE0FEED25E025E0FDEE4DF0EB6F
:107EBC00D3940374809480500690FA20E04BF0EF3A
:107ECC00640190FA207006E04480F08004E0547F56
:077EDC00F053BA7F7F002282
:107EE30043BA8090FA30E054F0F0EDD394037480F9
:107EF3009480500BE0FEED25E025E0FDEE4DF0EB28
:107F0300D3940374809480500690FA30E04BF0EFE2
:107F1300640190FA307006E04480F08004E0547FFE
:077F2300F053BA7F7F00223A
:107F2A0043BA8090FA38E054F0F0EDD394037480A9
:107F3A009480500BE0FEED25E025E0FDEE4DF0EBE0
:107F4A00D3940374809480500690FA38E04BF0EF93
:107F5A00640190FA387006E04480F08004E0547FAF
:077F6A00F053BA7F7F0022F3
:107F710043BA8090FA40E054F0F0EDD3940374805A
:107F81009480500BE0FEED25E025E0FDEE4DF0EB99
:107F9100D3940374809480500690FA40E04BF0EF44
:107FA100640190FA407006E04480F08004E0547F60
:077FB100F053BA7F7F0022AC
:107FB80043BA8090FA48E054F0F0EDD3940374800B
:107FC8009480500BE0FEED25E025E0FDEE4DF0EB52
:107FD800D3940374809480500690FA48E04BF0EFF5
:107FE800640190FA487006E04480F08004E0547F11
:077FF800F053BA7F7F002265
:107FFF0043BA8090FA50E054F0F0EDD394037480BC
:10800F009480500BE0FEED25E025E0FDEE4DF0EB0A
:10801F00D3940374809480500690FA50E04BF0EFA5
:10802F00640190FA507006E04480F08004E0547FC1
:07803F00F053BA7F7F00221D
:1080460043BA8090FA58E054F0F0EDD3940374806C
:108056009480500BE0FEED25E025E0FDEE4DF0EBC3
:10806600D3940374809480500690FA58E04BF0EF56
:10807600640190FA587006E04480F08004E0547F72
:07808600F053BA7F7F0022D6
:10808D0043BA8090FA60E054F0F0EDD3940374801D
:10809D009480500BE0FEED25E025E0FDEE4DF0EB7C
:1080AD00D3940374809480500690FA60E04BF0EF07
:1080BD00640190FA607006E04480F08004E0547F23
:0780CD00F053BA7F7F00228F
:1080D40043BA8090FA68E054F0F0EDD394037480CE
:1080E4009480500BE0FEED25E025E0FDEE4DF0EB35
:1080F400D3940374809480500690FA68E04BF0EFB8
:10810400640190FA687006E04480F08004E0547FD3
:07811400F053BA7F7F002247
:10811B0043BA8090FA70E054F0F0EDD3940374807E
:10812B009480500BE0FEED25E025E0FDEE4DF0EBED
:10813B00D3940374809480500690FA70E04BF0EF68
:10814B00640190FA707006E04480F08004E0547F84
:07815B00F053BA7F7F002200
:10842D0043BA8090FE50E054CFF0EDD394037480A6
:10843D009480500AE0FEEDC454F0FDEE4DF0EF6473
:10844D000190FE507006E04480F08004E0547FF00F
:06845D0053BA7F7F0022EC
:1075AF009000011231AE6401700553CE7F8003430A
:1075BF00CE80123195C4333354C0FFE5CE54BF4F44
:1075CF00F5CE9000021231AEC43354E0FFE5CE5435
:1075DF00DF4FF5CE9000031231AEC454F0FFE5CE6D
:1075EF0054EF4FF5CE9000041231AE33333354F8CD
:1075FF00FFE5CE54F74FF5CE9000051231AE25E0E2
:10760F0025E0FFE5CE54FB4FF5CE9000061231AECC
:10761F00FFE5CE54FC4FF5CEE490045FF0C200229C
:10889000EF700753CEEF53CE7F2243CE1043CE80EE
:0188A00022B5
:08899C008FCFD2002000FD2264
:0B89610075CFFFD2002000FDAFCF2239
:03004B00027E082A
:107E0800C0E0C083C082C0D075D000C007E5CE30C6
:107E1800E404C2008029900585E0C39480748094AE
:107E2800804002E4F0900585E0FF04F074602FF5CF
:107E380082E43404F583E5CFF090045F7405F075AF
:0D7E4800CDC0D007D0D0D082D083D0E032A2
:0B896C005252614172724161EB589061
:1084E60043000001000741000300430004000000B0
:0F74150090051AEBF0A3EAF0A3E9F0A3123614E6
:1074240090052212363900000000900522123639E8
:107434000000000090051DE0FCA3E0FDA3E0FEA316
:10744400E0FF900522E0F8A3E0F9A3E0FAA3E0FB53
:10745400C31234DA5044900521E0FFC007A3A3A36C
:10746400E0FEA3E0FF90051AE0FBA3E0FAA3E0F935
:107474008F828E83D0E0123220900522E0FCA3E0BC
:10748400FDA3E0FEA3E02401FFE43EFEE43DFDE4B1
:0C7494003CFC900522123614809A7F0008
:0174A00022C9
:0B72EA009003D1EBF0A3EAF0A3E9F061
:1072F5009003DB123639000000009003DB123639AB
:10730500000000009003D7E0FCA3E0FDA3E0FEA38E
:10731500E0FFA3E0F8A3E0F9A3E0FAA3E0FBC312C2
:1073250034DA50569003DBA3A3E0FEA3E0FF9003FD
:10733500D4E0FBA3E0FAA3E0F98F828E831231AE8D
:10734500FD9003D1E0FBA3E0FAA3E0F98F828E83E1
:107355001231AE6D60037F00229003DBE0FCA3E0F9
:10736500FDA3E0FEA3E02401FFE43EFEE43DFDE4D1
:0C7375003CFC9003DB123614808A7F0180
:0173810022E9
:106D8B00E0FCA3E0FDA3E0FEA3E0FF9003F51236C9
:0C6D9B00149003C4E0FBA3E0FAA3E0F9AD
:0B6DA7009003EFEBF0A3EAF0A3E9F08B
:106DB2009003F9123639000000009003F9123639B7
:106DC200000000009003F5E0FCA3E0FDA3E0FEA3B9
:106DD200E0FFA3E0F8A3E0F9A3E0FAA3E0FBC3120B
:106DE20034DA50549003F9A3A3E0FEA3E0FF90032A
:106DF200F2E0FBA3E0FAA3E0F98F828E831231AEB8
:106E0200FDC0059003EFE0FBA3E0FAA3E0F98F8257
:106E12008E83D0E01232209003F9E0FCA3E0FDA3C0
:106E2200E0FEA3E02401FFE43EFEE43DFDE43CFC81
:106E32009003F9123614808C9003EFE0FBA3E0FA82
:036E4200A3E0F9D1
:016E4500222A
:0B7BEC00900552EBF0A3EAF0A3E9F0D3
:107BF700E4FF900555E0FBA3E0FAA3E0F98F827557
:107C070083001231AEFE6017900552E0FBA3E0FA45
:107C1700A3E0F98F82758300EE1232200F80D39094
:107C27000552E0FBA3E0FAA3E0F98F82758300E435
:037C3700023220F6
:0B7A52009003F3E0FBA3E0FAA3E0F9CF
:107A5D0090045B1236390000000090045BA3A3E094
:107A6D00FEA3E0F5828E831231AE601F90045BE0C1
:107A7D00FCA3E0FDA3A3E02401FFE43EFEE43DFDF5
:107A8D00E43CFC90045B12361480CF90045BE0FC68
:097A9D00A3E0FDA3E0FEA3E0FF5D
:017AA60022BD
:0B779F00900544EBF0A3EAF0A3E9F032
:1077AA00A312363900000000E47F02FEFDFC9005BA
:1077BA0047E0F8A3E0F9A3E0FAA3E0FB1233BD9097
:1077CA000544E0FBA3E0FAA3E0F98F828E8312332B
:1077DA000B45F06021900547E0FCA3E0FDA3E0FE25
:1077EA00A3E02401FFE43EFEE43DFDE43CFC9005F9
:1077FA004712361480B2900547E0FCA3E0FDA3E0EF
:04780A00FEA3E0FFFA
:01780E002257
:0889A4008F828E83E493FF2211
:0C8932008F828E83E493FE740193FF2279
:0F88E0008F828E83E493FE740193FFE4FCFD22EC
:10705F0090050DEBF0A3EAF0A3E9F0A3ECF0A3ED9C
:01706F00F030
:1070700090051612363900000000900516123639B8
:1070800000000000900512E0FCA3E0FDA3E0FEA3D9
:10709000E0FFA3E0F8A3E0F9A3E0FAA3E0FBC3124A
:1070A00034DA505A900516A3A3E0FEA3E0FF900542
:1070B00011E02FFF900510E03EFE1289A4C007905A
:1070C0000516A3A3E0FEA3E0FF90050DE0FBA3E0FF
:1070D000FAA3E0F98F828E83D0E012322090051659
:1070E000E0FCA3E0FDA3E0FEA3E02401FFE43EFEFC
:1070F000E43DFDE43CFC90051612361480869005B4
:097100000DE0FBA3E0FAA3E0F9A5
:017109002263
:10887D00900207EBF0A3EAF0A3E9F0900003EFF00C
:03888D007F002247
:0F58B300E0FBA3E0FAA3E0240EF9E43AFA7D0249
:0F58C200900439EBF0A3EAF0A3E9F0A3EDF0FBBB
:1058D100A312363900000000EBC394017480948058
:1058E100403890043DE0F8A3E0F9A3E0FAA3E0FB1F
:1058F100C001C002C003900439E0FBA3E0FAA3E0B9
:10590100F9123195FFD003D002D001EB4FFFEAFE2F
:10591100E9FDE8FC90043D12361490043CE0C39488
:1059210002748094804049A3E0F8A3E0F9A3E0FA6F
:10593100A3E0FBC000C001C002C003900439E0FB3A
:10594100A3E0FAA3E0F99000011231AEFFE4FCFDFF
:10595100FE78081234FED003D002D001D000EB4F04
:10596100FFEA4EFEE94DFDE84CFC90043D12361471
:1059710090043CE0C39403748094804049A3E0F810
:10598100A3E0F9A3E0FAA3E0FBC000C001C002C09C
:1059910003900439E0FBA3E0FAA3E0F990000212BE
:1059A10031AEFFE4FCFDFE78101234FED003D002CC
:1059B100D001D000EB4FFFEA4EFEE94DFDE84CFC73
:1059C10090043D12361490043CE0C3940474809416
:1059D100804049A3E0F8A3E0F9A3E0FAA3E0FBC00B
:1059E10000C001C002C003900439E0FBA3E0FAA3A8
:1059F100E0F99000031231AEFFE4FCFDFE781812CD
:105A010034FED003D002D001D000EB4FFFEA4EFEAE
:105A1100E94DFDE84CFC90043D12361490043DE044
:0A5A2100FCA3E0FDA3E0FEA3E0FFFC
:015A2B002258
:0B5F8F009003BFEBF0A3EAF0A3E9F0E1
:105F9A00A31236390000000078C97C037D017BFF1B
:105FAA007A89796C7E007F0412316F78CD7C037D0B
:105FBA00017BFF7A8979707E007F0412316F90022B
:105FCA0007E0FBA3E0FAA3E0F9123511EF0260B98A
:105FDA00900207E0FBA3E0FAA3E0F990001412355F
:105FEA00319003C2E0F8A3E0F9A3E0FAA3E0FBC30F
:105FFA001234DA40030260CE9003C2E0FCA3E0FD53
:10600A00A3E0FEA3E0FF900000E0FBA3E0FAA3E018
:10601A00F9126B3B900000E0FBA3E0FAA3E0F990D1
:10602A0003C6EBF0A3EAF0A3E9F0C003C002C00183
:10603A009003D47401F0A37403F0A374C9F0A312FB
:10604A00363900000004D001D002D0031272EAEF00
:10605A0060509003C6E0FBA3E0FAA3E024E4F9EA67
:10606A003401FAC0039003D47401F0A37403F0A3BB
:10607A0074CDF0A312363900000004D0031272EA7C
:10608A00EF601F9003C2E0FCA3E0FDA3E0FEA3E0E3
:10609A00FF9003BFE0FBA3E0FAA3E0F91235617FAA
:1060AA0000229003C2E0FCA3E0FDA3E0FEA3E024EB
:1060BA0001FFE43EFEE43DFDE43CFC9003C21236DF
:0660CA0014025FDA7F0101
:0160D00022AD
:0B5B98009003BFEBF0A3EAF0A3E9F0DC
:105BA300A312363900000000E49003C6F09003C24C
:105BB30012363900000000900207E0FBA3E0FAA3CD
:105BC300E0F990000C1235319003C2E0F8A3E0F93C
:105BD300A3E0FAA3E0FBC31234DA4003025CF690BD
:105BE3000207E0FBA3E0FAA3E0F9900014123531B9
:105BF3009003C2E0F8A3E0F9A3E0FAA3E02FFFEAE1
:105C03003EFEE93DFDE83CFC900000E0FBA3E0FA2A
:105C1300A3E0F9126B3B900000E0F9A3E0FAA3E0E4
:105C23009003C7C9F0A3EAF0A3E9F0E49003C6F038
:105C33009003C6E0FFC39480748094804003025CA9
:105C4300D4A3E0FBA3E0FAA3E0F975F004EFA4F515
:105C53008285F0831231AE706F9003C6E075F00455
:105C6300A4FFA3A3A3E02FF9EA35F0FA90000112F1
:105C730031AE70549000021231AE704C900003129A
:105C830031AE70447F80FEFDFC9003C2E0F8A3E0D8
:105C9300F9A3E0FAA3E0FB1233BDA804A905AA0601
:105CA300AB079003C6E0FFE4FCFDFEEB2FFFEE3AEB
:105CB300FEED39FDEC38FC9003BFE0FBA3E0FAA353
:105CC300E0F91235617F00229003C6E004F0025C24
:105CD300339003C2E0FCA3E0FDA3E0FEA3E02401B4
:105CE300FFE43EFEE43DFDE43CFC9003C2123614A7
:055CF300025BBA7F0115
:015CF8002289
:10570900900207E0FBA3E0FAA3E0F990001C123530
:1057190031900000E0FBA3E0FAA3E0F9126B3B90A3
:105729000000E0F9A3E0FAA3E09003BFC9F0A3EAFF
:10573900F0A3E9F0900207E0FBA3E0FAA3E0F990F7
:1057490000201235319003BFE0FBA3E0FAA3E0F992
:105759009001E8EF123220900207E0FBA3E0FAA3E0
:10576900E0F9900020123531E4FFE4FDFC780812DD
:1057790034EB9003BFE0FBA3E0FAA3E0F99001E961
:10578900EF123220900207E0FBA3E0FAA3E0F990C0
:105799000020123531E4FFFEE4FC78101234EB905E
:1057A90003BFE0FBA3E0FAA3E0F99001EAEF1232AC
:1057B90020900207E0FBA3E0FAA3E0F99000201291
:1057C9003531E4FFFEFDEC78181234EB9003BFE0AD
:1057D900FBA3E0FAA3E0F99001EBEF12322090026B
:1057E90007E0FBA3E0FAA3E0F99000241235319019
:1057F90003BFE0FBA3E0FAA3E0F99001ECEF12325A
:1058090020900207E0FBA3E0FAA3E0F9900024123C
:105819003531E4FFE4FDFC78081234EB9003BFE076
:10582900FBA3E0FAA3E0F99001EDEF123220900218
:1058390007E0FBA3E0FAA3E0F9900024123531E474
:10584900FFFEE4FC78101234EB9003BFE0FBA3E009
:10585900FAA3E0F99001EEEF123220900207E0FB83
:10586900A3E0FAA3E0F9900024123531E4FFFEFD2C
:10587900EC78181234EB9003BFE0FBA3E0FAA3E045
:10588900F99001EFEF123220900207E0FBA3E0FA52
:10589900A3E0F990001C123531900000E0FBA3E071
:0958A900FAA3E0F912752D7F004D
:0158B20022D3
:1048630078BC7C037D017BFF7A8979747E007F03AA
:1048730012316F900000E0FBA3E0FAA3E0F97F00A0
:104883007E007D007C00126B3B900000E0FBA3E008
:10489300FAA3E0F9123195FF9003BCE0B5071C9031
:1048A30000011231AEFF9003BDE0B5070E90000288
:1048B3001231AEFF9003BEE06F601DE924C6F9EA32
:1048C3003401FA7D041258C2900207E0FBA3E0FA18
:1048D300A3E0F91235618012900207E0FBA3E0FA2E
:1048E300A3E0F912366A00000000900207E0FBA380
:1048F300E0FAA3E0F9123511900000E0FBA3E0FA1F
:10490300A3E0F9126B3B900000E0FBA3E0FAA3E005
:10491300F99003B9EBF0A3EAF0A3E9F09000521287
:1049230031AE644670309003B9E0FBA3E0FAA3E034
:10493300F99000531231AEB4411C9000541231AEC1
:10494300B454139000551231AEB4330A900056128A
:1049530031AE643260037F02229003B9E0FBA3E02F
:10496300FAA3E0240B1258BC900207E0FBA3E0FA81
:10497300A3E0F990000812357B9003B9E0FBA3E0B4
:10498300FAA3E02424F9E43AFA7D041258C290020F
:1049930007E0FBA3E0FAA3E0F990000C12357B904B
:1049A30003B9E0FBA3E0FAA3E0F990000D1231AEE6
:1049B300FFE4FCFDFE900207E0FBA3E0FAA3E0F9AD
:1049C30090001012357B9003B91258B3900207E0A0
:1049D300FBA3E0FAA3E0F91235B8EF2BFFEE3AFEA2
:1049E300ED39FDEC38FC900207E0FBA3E0FAA3E00D
:1049F300F990001412357B9003B9E0FBA3E0FAA30E
:104A0300E0F99000101231AEFFE4FCFDFE900207C6
:104A1300E0FBA3E0FAA3E0F990000C1235D81233BF
:104A2300BD900207E0FBA3E0FAA3E0F990001412A3
:104A330035D8EF2BFFEE3AFEED39FDEC38FC900252
:104A430007E0FBA3E0FAA3E0F990001812357B908E
:104A530003B9E0FBA3E0FAA3E02420F9E43AFA7DEA
:104A6300041258C2E47B02FAF9F8123448900207A0
:104A7300E0FBA3E0FAA3E0F990000412357BE924FC
:104A83001CF9E43AFA125F8FEF60037F0122900270
:104A930007E0FBA3E0FAA3E0F990001C1235319084
:104AA3000000E0FBA3E0FAA3E0F9126B3B900000E7
:104AB300E0FBA3E0FAA3E024E8F9EA3401FA7D0479
:104AC3001258C2900207E0FBA3E0FAA3E0F99000BA
:104AD3002012357B90002012353174FFFBFAF9F870
:104AE300C31234DA706D900207E0FBA3E0FAA3E08F
:104AF300F9900004123531E47B02FAF9F81233BD60
:104B0300900207E0FBA3E0FAA3E0F9900018123546
:104B1300D8C3EF9BFFEE9AFEED99FDEC98FC900253
:104B230007E0FBA3E0FAA3E0F99000101235D812D6
:104B33003448EF24FFFFEE34FFFEED34FFFDEC3489
:104B4300FFFC900207E0FBA3E0FAA3E0F99000204A
:104B530012357B900207E0FBA3E0FAA3E02424F9DB
:104B6300E43AFA125B98EF60037F01221257097F40
:014B73000041
:014B7400221E
:106F01009003EFE0FBA3E0FAA3E0F990002812352B
:016F1100314E
:066F120090043212361457
:106F18007F007E007D007C00900207E0FBA3E0FA82
:106F2800A3E0F99000141235D8C000C001C002C017
:106F380003E47B80FAF9F8900432E0FCA3E0FDA3B7
:106F4800E0FEA3E0FF123448D003D002D001D00005
:106F5800EF2BFFEE3AFEED39FDEC38FC900000E037
:106F6800FBA3E0FAA3E0F9126B3B900000E0F9A361
:106F7800E0FAA3E0900436C9F0A3EAF0A3E9F090A0
:106F88000432A3A3A3E0547FFFE4FEFDFC7B04FAD4
:106F9800F9F81233BD900436E0FBA3E0FAA3E02F22
:0C6FA800F9EA3EFAEB3DFB7D040258C202
:0F1753009003EFEBF0A3EAF0A3E9F0A312361432
:10176200900207E0FBA3E0FAA3E0F990000812352B
:10177200319000101235D81233BD9003F612361490
:101782009003FA123639000000009003FE12363937
:10179200000000009004021236390000000090049C
:1017A200061236390000000090040A123639000091
:1017B200000090040E12363900000000900412124C
:1017C2003639000000009003EFE0F9A3E0FAA3E04D
:1017D200900004C9F0A3EAF0A3E9F09003EFE0FB64
:1017E200A3A3E0F99000241235319003F2E0F8A3AC
:1017F200E0F9A3E0FAA3E0FBC31234DA501290033B
:10180200EFE0FBA3E0FAA3E0F9900032E412322009
:101812009003EFE0FBA3E0FAA3E0F9900033123566
:10182200319003F2E0F8A3E0F9A3E0FAA3E0FBC3EE
:101832001234DA7002FF229003EFE0FBA3E0FAA376
:10184200E0F99000331235319003F2E0F8A3E0F9A9
:10185200A3E0FAA3E0FBC31234DA40030218EA90D1
:1018620003EFE0FBA3E0FAA3E0F990002012353188
:1018720090002812357B900028123531EF24FEFFAC
:10188200EE34FFFEED34FFFDEC34FFFC900207E086
:10189200FBA3E0FAA3E0F99000101235D81233BD91
:1018A200900207E0FBA3E0FAA3E0F99000181235DA
:1018B200D8EF2BFFEE3AFEED39FDEC38FC9003EF4A
:1018C200E0FBA3E0FAA3E0F990002C12357B900034
:1018D20030E4F5F0123390900033123684000000A9
:1018E20000900032E41232209003EFE0FBA3E0FA12
:1018F200A3E0F99000331235D89003F2E0FCA3E0A4
:10190200FDA3E0FEA3E0C39BFFEE9AFEED99FDEC82
:1019120098FC9004061236149003EFE0FBA3E0FA61
:10192200A3E0F99000241235319003F2E0F8A3E02D
:10193200F9A3E0FAA3E0FBC31234DA40589003EFB4
:10194200E0FBA3E0FAA3E0F99000331235D8C0001F
:10195200C001C002C0039003EFE0FBA3E0FAA3E0E2
:10196200F9900024123531D003D002D001D000C347
:10197200EF9BFFEE9AFEED99FDEC98FC90040612A7
:1019820036149003EFE0FBA3E0FAA3E0F9900032F3
:1019920074011232209003EFE0FBA3E0FAA3E0F916
:1019A2009000331235319003F6E0F8A3E0F9A3E09A
:1019B200FAA3E0FB123448AC00AD01AE02AF03E47F
:1019C200FBFAF9F8C31234DA70030221B19003EF83
:1019D200E0FBA3E0FAA3E0F990003012330BFFAE74
:1019E200F0E4FCFDC004C005C006C007900207E099
:1019F200FBA3E0FAA3E0F9900008123531D003D03E
:101A020002D001D000C3EF9BFFEE9AFEED99FDECF0
:101A120098FC900406E0F8A3E0F9A3E0FAA3E0FB47
:101A2200D31234DA4003021C239003EFE0FBA3E05D
:101A3200FAA3E0F990003012330BFFAEF0E4FCFDA4
:101A4200C004C005C006C007900207E0FBA3E0FA8D
:101A5200A3E0F9900008123531D003D002D001D0B2
:101A620000C3EF9BFFEE9AFEED99FDEC98FC90040B
:101A720006E0F8A3E0F9A3E0FAA3E0FBC31234DA2C
:101A82006003021C029003EFE0FBA3E0FAA3E0F97B
:101A9200900028123531EF24FEFFEE34FFFEED34C4
:101AA200FFFDEC34FFFC900207E0FBA3E0FAA3E0A9
:101AB200F99000101235D81233BD900207E0FBA353
:101AC200E0FAA3E0F99000181235D8EF2BFFEE3AB6
:101AD200FEED39FDEC38FCC004C005C006C007901D
:101AE20003EFE0FBA3E0FAA3E0F990002C123531FA
:101AF200D003D002D001D000C3EF9BFFEE9AFEEDDF
:101B020099FDEC98FCC004C005C006C0079002070E
:101B1200E0FBA3E0FAA3E0F9900010123531EF24C4
:101B2200FFFBEE34FFFAED34FFF9EC34FFF8D00797
:101B3200D006D005D004C31234DA6003021BC7906A
:101B420003EFE0FBA3E0FAA3E0F99000321231AE1A
:101B52007014126F0C9003EFE0FBA3E0FAA3E0F91C
:101B620090002812357B9003EFE0FBA3E0FAA3E09C
:101B7200F9900028123531EF24FEFFEE34FFFEED1E
:101B820034FFFDEC34FFFC900207E0FBA3E0FAA374
:101B9200E0F99000101235D81233BD900207E0FB35
:101BA200A3E0FAA3E0F99000181235D8EF2BFFEE6C
:101BB2003AFEED39FDEC38FC9003EFE0FBA3E0FACE
:101BC200A3E0F9801E9003EFE0FBA3E0FAA3E0F9A3
:101BD20090002C123531EF2401FFE43EFEE43DFD7E
:101BE200E43CFC90002C12357B9003EFE0FBA3E079
:101BF200FAA3E0F9900030E4F5F01233900224CE1B
:101C0200900406A3A3E0FEA3E0FF9003EFE0FBA392
:101C1200E0FAA3E0F9900030EE8FF0123343022491
:101C2200CE9003EFE0FBA3E0FAA3E0F990003012BC
:101C3200330BFFAEF0E4FCFDC004C005C006C007D4
:101C4200900207E0FBA3E0FAA3E0F9900008123546
:101C520031D003D002D001D000C3EF9BFFEE9AFE39
:101C6200ED99FDEC98FC9003FA123614900412E000
:101C7200FCA3E0FDA3E0FEA3E0FF9003FAE0F8A3DB
:101C8200E0F9A3E0FAA3E0FBEF2BFFEE3AFEED3919
:101C9200FDEC38FC9004121236149003EFE0FBA323
:101CA200E0FAA3E0F9900028123531EF24FEFFEEAE
:101CB20034FFFEED34FFFDEC34FFFC900207E0FB45
:101CC200A3E0FAA3E0F99000101235D81233BD90C8
:101CD2000207E0FBA3E0FAA3E0F99000181235D85E
:101CE200EF2BFFEE3AFEED39FDEC38FCC004C005E7
:101CF200C006C0079003EFE0FBA3E0FAA3E0F9906F
:101D0200002C123531D003D002D001D000C3EF9B9A
:101D1200FFEE9AFEED99FDEC98FCC004C005C006EA
:101D2200C007900207E0FBA3E0FAA3E0F9900010DD
:101D3200123531EF24FFFBEE34FFFAED34FFF9ECFC
:101D420034FFF8D007D006D005D004C31234DA70BD
:101D520003D38001C3500302213C9003EFE0FBA3B5
:101D6200E0FAA3E0F990002C123531EF2401FFE4F0
:101D72003EFEE43DFDE43CFC90002C12357B9000DD
:101D820030E4F5F0123390900412E0F8A3E0F9A3E6
:101D9200E0FAA3E0FB900406E0FCA3E0FDA3E0FE72
:101DA200A3E0C39BFFEE9AFEED99FDEC98FC900434
:101DB200021236149003EFE0FBA3E0FAA3E0F990DD
:101DC2000028123531EF24FEFFEE34FFFEED34FF22
:101DD200FDEC34FFFC900207E0FBA3E0FAA3E0F97C
:101DE2009000101235D81233BD900207E0FBA3E039
:101DF200FAA3E0F99000181235D8EF2BFFEE3AFE65
:101E0200ED39FDEC38FCC004C005C006C0079002E5
:101E120007E0FBA3E0FAA3E0F9900010123531EFDE
:101E220024FFFFEE34FFFEED34FFFDEC34FFFCD067
:101E320003D002D001D000EB2FFFEA3EFEE93DFDC8
:101E4200E83CFCC004C005C006C0079003EFE0FBFD
:101E5200A3E0FAA3E0F990002C123531EF24FFFB46
:101E6200EE34FFFAED34FFF9EC34FFF8D007D00678
:101E7200D005D004C3EF9BFFEE9AFEED99FDEC98DE
:101E8200FC900207E0FBA3E0FAA3E0F9900008123D
:101E920035D81233BD9003FE1236149003FEE0FCD7
:101EA200A3E0FDA3E0FEA3E0FFA3E0F8A3E0F9A313
:101EB200E0FAA3E0FBD31234DA4003022057900287
:101EC20007E0FBA3E0FAA3E0F99000081235D890EE
:101ED2000402E0FCA3E0FDA3E0FEA3E0FF1234480D
:101EE2009003FA123614900412E0F8A3E0F9A3E08A
:101EF200FAA3E0FBC000C001C002C003900207E0E9
:101F0200FBA3E0FAA3E0F99000081235319003FA3E
:101F1200E0F8A3E0F9A3E0FAA3E0FB1233BDD0039B
:101F2200D002D001D000EB2FFFEA3EFEE93DFDE8F2
:101F32003CFC9004121236149003FEE0FCA3E0FD78
:101F4200A3E0FEA3E0FFA3E0F8A3E0F9A3E0FAA375
:101F5200E0FBC31234DA6003021FEF9003EFE0FBF1
:101F6200A3E0FAA3E0F99000321231AE7014126FBE
:101F72000C9003EFE0FBA3E0FAA3E0F99000281233
:101F8200357B9003EFE0FBA3E0FAA3E0F990002891
:101F9200123531EF24FEFFEE34FFFEED34FFFDEC8F
:101FA20034FFFC900207E0FBA3E0FAA3E0F9900003
:101FB200101235D81233BD900207E0FBA3E0FAA35A
:101FC200E0F99000181235D8EF2BFFEE3AFEED390A
:101FD200FDEC38FC9003EFE0FBA3E0FAA3E0F990FC
:101FE200002C12357B900030E4F5F080629003EF14
:101FF200E0FBA3E0FAA3E0242CF9E43AFAC002C021
:10200200011235119003FAE0F8A3E0F9A3E0FAA374
:10201200E02FFFEA3EFEE93DFDE83CFCD001D002A4
:10202200123561900412A3A3E0FEA3E0FBAA06907E
:102032000406A3A3E0FEA3E0C39BFFEE9AFE900377
:10204200EFE0FBA3E0FAA3E0F9900030EE8FF0128C
:1020520033900224CE9003EFE0FBA3E0FAA3E0F971
:10206200900028123531EF24FEFFEE34FFFEED34EE
:10207200FFFDEC34FFFC900207E0FBA3E0FAA3E0D3
:10208200F99000101235D81233BD900207E0FBA37D
:10209200E0FAA3E0F99000181235D8EF2BFFEE3AE0
:1020A200FEED39FDEC38FC900207E0FBA3E0FAA359
:1020B200E0F99000101235D8EF2BFFEE3AFEED3921
:1020C200FDEC38FC9003EFE0FBA3E0FAA3E0F9900B
:1020D200002C1235D8C3EF9BFFEE9AFEED99FDEC72
:1020E20098FC9003FA123614900412E0F8A3E0F977
:1020F200A3E0FAA3E0FBC000C001C002C00390024B
:1021020007E0FBA3E0FAA3E0F99000081235319052
:1021120003FAE0F8A3E0F9A3E0FAA3E0FB1233BD6F
:10212200D003D002D001D000EB2FFFEA3EFEE93D02
:10213200FDE83CFC900412123614126F019003EF7A
:10214200E0FBA3E0FAA3E0F990002812357B9000AF
:1021520028123531EF24FEFFEE34FFFEED34FFFD91
:10216200EC34FFFC900207E0FBA3E0FAA3E0F99055
:1021720000101235D81233BD900207E0FBA3E0FA3B
:10218200A3E0F99000181235D8EF2BFFEE3AFEEDDE
:1021920039FDEC38FC9003EFE0FBA3E0FAA3E0F991
:1021A20090002C12357B900030E4F5F012339090C1
:1021B2000412E0F8A3E0F9A3E0FAA3E0FB9004061E
:1021C200E0FCA3E0FDA3E0FEA3E0C39BFFEE9AFECA
:1021D200ED99FDEC98FCE4FBFAF9F8C31234DA400D
:1021E200030224CE900412E0F8A3E0F9A3E0FAA3DC
:1021F200E0FB900406E0FCA3E0FDA3E0FEA3E0C345
:102202009BFFEE9AFEED99FDEC98FC9003F6E0F848
:10221200A3E0F9A3E0FAA3E0FB12344890040E1203
:10222200361490040A1236390000000090040EE0C1
:10223200FCA3E0FDA3E0FEA3E0FF90040AE0F8A304
:10224200E0F9A3E0FAA3E0FBC31234DA400302226E
:10225200FC900412E0FCA3E0FDA3E0FEA3E0FF90EB
:1022620003F6E0F8A3E0F9A3E0FAA3E0FBEF2BFF0B
:10227200EE3AFEED39FDEC38FC9004121236149061
:102282000412E0F8A3E0F9A3E0FAA3E0FB9004064D
:10229200E0FCA3E0FDA3E0FEA3E0C39BFFEE9AFEF9
:1022A200ED99FDEC98FCE4FBFAF9F8C31234DA700C
:1022B200139003EFE0FBA3E0FAA3E0F990003212DF
:1022C20031AE7014126F019003EFE0FBA3E0FAA3AA
:1022D200E0F990002812357B90040AE0FCA3E0FDAF
:1022E200A3E0FEA3E02401FFE43EFEE43DFDE43C66
:1022F200FC90040A12361402222E9003EFE0FBA394
:10230200E0FAA3E0F9900028123531EF24FEFFEE47
:1023120034FFFEED34FFFDEC34FFFC900207E0FBDE
:10232200A3E0FAA3E0F99000101235D81233BD9061
:102332000207E0FBA3E0FAA3E0F99000181235D8F7
:10234200EF2BFFEE3AFEED39FDEC38FC9003EFE0A7
:10235200FBA3E0FAA3E0F990002C12357B90041263
:10236200E0F8A3E0F9A3E0FAA3E0FB900406E0FCA6
:10237200A3E0FDA3E0FEA3E0C39BFFEE9AFEED996E
:10238200FDEC98FCE4FBFAF9F8C31234DA400302DC
:1023920024CE900207E0FBA3E0FAA3E0F990000844
:1023A2001235D8C000C001C002C003900412E0F888
:1023B200A3E0F9A3E0FAA3E0FB900406E0FCA3E0AB
:1023C200FDA3E0FEA3E0C39BFFEE9AFEED99FDECB8
:1023D20098FCD003D002D001D0001234489003FA06
:1023E200123614900412E0F8A3E0F9A3E0FAA3E095
:1023F200FBC000C001C002C003900207E0FBA3E0E3
:10240200FAA3E0F99000081235319003FAE0F8A33C
:10241200E0F9A3E0FAA3E0FB1233BDD003D002D06F
:1024220001D000EB2FFFEA3EFEE93DFDE83CFC90C7
:1024320004121236149003EFE0FBA3E0FAA3E024A7
:102442002CF9E43AFAC002C0011235119003FAE005
:10245200F8A3E0F9A3E0FAA3E02FFFEA3EFEE93D8C
:10246200FDE83CFCD001D002123561900412E0F884
:10247200A3E0F9A3E0FAA3E0FB900406E0FCA3E0EA
:10248200FDA3E0FEA3E0C39BFFEE9AFEED99FDECF7
:1024920098FCE4FBFAF9F8C31234DA502F900412D4
:1024A200A3A3E0FEA3E0FBAA06900406A3A3E0FE1A
:1024B200A3E0C39BFFEE9AFE9003EFE0FBA3E0FADA
:1024C200A3E0F9900030EE8FF01233909003EFE02A
:1024D200FBA3E0FAA3E02433F9E43AFAC002C00114
:1024E200123511900406E0F8A3E0F9A3E0FAA3E0A4
:1024F2002FFFEA3EFEE93DFDE83CFCD001D002128E
:0425020035617F00C0
:0125060022B2
:10004E009003BC1236149003B9EBF0A3EAF0A3E9C7
:01005E00F0B1
:10005F009003C7123639000000009003CB123639D7
:10006F00000000009003CF1236390000000090030B
:10007F00D3123639000000009003D7123639000032
:10008F0000009003DB123639000000009003DF12EE
:10009F003639000000009003E312363900000000EB
:1000AF009003E7123639000000009003EB12363947
:1000BF0000000000900004EBF0A3EAF0A3E9F09039
:1000CF0003B9E0FBA3E0FAA3E0F9A3E0FCA3E0FD92
:1000DF00A3E0FEA3E0FF121753E4FFFEFDFC900325
:1000EF00C0E0F8A3E0F9A3E0FAA3E0FBC31234DA0F
:1000FF007005FFFEFDFC22900207E0FBA3E0FAA3D0
:10010F00E0F99000081235319000101235D81233F3
:10011F00BD9003C71236149003B9E0FBA3E0FAA316
:10012F00E0F99000331235319003C0E0F8A3E0F905
:10013F00A3E0FAA3E02FFFEA3EFEE93DFDE83CFC19
:10014F009003B9A3E0FAA3E0F99000241235D8D3B5
:10015F001234DA50589003B9E0FBA3E0FAA3E0F9A8
:10016F009000331235D8C000C001C002C003900305
:10017F00B9E0FBA3E0FAA3E0F9900024123531D0E7
:10018F0003D002D001D000C3EF9BFFEE9AFEED9992
:10019F00FDEC98FC9003C01236149003B9E0FBA35A
:1001AF00E0FAA3E0F990003274011232209003B903
:1001BF00E0FBA3E0FAA3E0F990003312353190038E
:1001CF00C7E0F8A3E0F9A3E0FAA3E0FB123448ACD0
:1001DF0000AD01AE02AF03E4FBFAF9F8C31234DA53
:1001EF007003020B679003B9E0FBA3E0FAA3E0F9F9
:1001FF0090002C123531900000E0FBA3E0FAA3E051
:10020F00F9126B3B9003B9E0FBA3E0FAA3E0F9907E
:10021F00003012330BFFAEF0E4FCFDC004C005C08C
:10022F0006C007900207E0FBA3E0FAA3E0F99000F5
:10023F0008123531D003D002D001D000C3EF9BFF9D
:10024F00EE9AFEED99FDEC98FC9003DB12361490BC
:10025F0003DBE0FCA3E0FDA3E0FEA3E0FF9003C0FF
:10026F00E0F8A3E0F9A3E0FAA3E0FBD31234DA40FD
:10027F00030204779003B9E0FBA3E0FAA3E0F9903F
:10028F00003012330BFF900000E0FBA3E0FAA3E075
:10029F002FF9EA35F0FA9003F2EBF0A3EAF0A3E9B5
:1002AF00F09003C0126D8B9003C0E0FCA3E0FDA3A0
:1002BF00E0FEA3E0FF9003DBE0F8A3E0F9A3E0FA90
:1002CF00A3E0FBC31234DA60030204569003B9E0D3
:1002DF00FBA3E0FAA3E0F9900028123531EF24FEDA
:1002EF00FFEE34FFFEED34FFFDEC34FFFC90020710
:1002FF00E0FBA3E0FAA3E0F99000101235D8123317
:10030F00BD900207E0FBA3E0FAA3E0F990001812FA
:10031F0035D8EF2BFFEE3AFEED39FDEC38FCC0047B
:10032F00C005C006C0079003B9E0FBA3E0FAA3E045
:10033F00F990002C123531D003D002D001D000C378
:10034F00EF9BFFEE9AFEED99FDEC98FCC004C00503
:10035F00C006C007900207E0FBA3E0FAA3E0F99004
:10036F000010123531EF24FFFBEE34FFFAED34FFAE
:10037F00F9EC34FFF8D007D006D005D004C31234FF
:10038F00DA600302041B9003B9E0FBA3E0FAA3E0D9
:10039F00F99000321231AE7014126F0C9003B9E065
:1003AF00FBA3E0FAA3E0F990002812357B9003B984
:1003BF00E0FBA3E0FAA3E0F9900028123531EF2417
:1003CF00FEFFEE34FFFEED34FFFDEC34FFFC900238
:1003DF0007E0FBA3E0FAA3E0F99000101235D81262
:1003EF0033BD900207E0FBA3E0FAA3E0F9900018F9
:1003FF001235D8EF2BFFEE3AFEED39FDEC38FC90BD
:10040F0003B9E0FBA3E0FAA3E0F9801E9003B9E083
:10041F00FBA3E0FAA3E0F990002C123531EF240191
:10042F00FFE43EFEE43DFDE43CFC90002C12357BE6
:10043F009003B9E0FBA3E0FAA3E0F9900030E4F5F4
:10044F00F012339002170E9003C0A3A3E0FEA3E0B7
:10045F00FF9003B9E0FBA3E0FAA3E0F9900030EEC0
:10046F008FF012334302170E9003B9E0FBA3E0FAAB
:10047F00A3E0F990003012330BFFAEF0E4FCFDC0A7
:10048F0004C005C006C007900207E0FBA3E0FAA373
:10049F00E0F9900008123531D003D002D001D0001E
:1004AF00C3EF9BFFEE9AFEED99FDEC98FC9003DBFA
:1004BF001236149003B9E0FBA3E0FAA3E0F9900021
:1004CF003012330BFF900000E0FBA3E0FAA3E02F04
:1004DF00F9EA35F0FA9003F2EBF0A3EAF0A3E9F0B2
:1004EF009003DB126D8B9003EBE0FCA3E0FDA3E028
:1004FF00FEA3E0FF9003DBE0F8A3E0F9A3E0FAA38B
:10050F00E0FBEF2BFFEE3AFEED39FDEC38FC9003EC
:10051F00EB1236149003B9E0FBA3E0FAA3E0F990D5
:10052F000028123531EF24FEFFEE34FFFEED34FFCD
:10053F00FDEC34FFFC900207E0FBA3E0FAA3E0F927
:10054F009000101235D81233BD900207E0FBA3E0E4
:10055F00FAA3E0F99000181235D8EF2BFFEE3AFE10
:10056F00ED39FDEC38FCC004C005C006C007900390
:10057F00B9E0FBA3E0FAA3E0F990002C123531D0DB
:10058F0003D002D001D000C3EF9BFFEE9AFEED998E
:10059F00FDEC98FCC004C005C006C007900207E040
:1005AF00FBA3E0FAA3E0F9900010123531EF24FF1E
:1005BF00FBEE34FFFAED34FFF9EC34FFF8D007D03F
:1005CF0006D005D004C31234DA7003D38001C350B0
:1005DF0003020AEF9003B9E0FBA3E0FAA3E0F9905E
:1005EF00002C123531EF2401FFE43EFEE43DFDE423
:1005FF003CFC90002C12357B900030E4F5F0123368
:10060F00909003EBE0F8A3E0F9A3E0FAA3E0FB90EE
:10061F0003C0E0FCA3E0FDA3E0FEA3E0C39BFFEE5D
:10062F009AFEED99FDEC98FC9003E31236149003BB
:10063F00B9E0FBA3E0FAA3E0F9900028123531EFFF
:10064F0024FEFFEE34FFFEED34FFFDEC34FFFC9093
:10065F000207E0FBA3E0FAA3E0F99000101235D8EF
:10066F001233BD900207E0FBA3E0FAA3E0F990007C
:10067F00181235D8EF2BFFEE3AFEED39FDEC38FCB2
:10068F00C004C005C006C007900207E0FBA3E0FA54
:10069F00A3E0F9900010123531EF24FFFFEE34FF85
:1006AF00FEED34FFFDEC34FFFCD003D002D001D0BF
:1006BF0000EB2FFFEA3EFEE93DFDE83CFCC004C025
:1006CF0005C006C0079003B9E0FBA3E0FAA3E0F969
:1006DF0090002C123531EF24FFFBEE34FFFAED348E
:1006EF00FFF9EC34FFF8D007D006D005D004C3EFE4
:1006FF009BFFEE9AFEED99FDEC98FC900207E0FB54
:10070F00A3E0FAA3E0F99000081235D81233BD9098
:10071F0003DF1236149003DFE0FCA3E0FDA3E0FE3D
:10072F00A3E0FFA3E0F8A3E0F9A3E0FAA3E0FBD373
:10073F001234DA40030209BB900207E0FBA3E0FA90
:10074F00A3E0F99000081235D89003E3E0FCA3E092
:10075F00FDA3E0FEA3E0FF1234489003DB12361432
:10076F009003B9E0FBA3E0FAA3E0F990002C123557
:10077F00319003F31236149003EBA3E0FDA3E0FED8
:10078F00A3E0FF9003C4E0FBA3E0FAA3E02FF9EA94
:10079F003EFAEB3D9003F7F0A3EAF0A3E9F09003E4
:1007AF00DBE0FCA3E0FDA3E0FEA3E0FF126C0190F1
:1007BF0003EBE0F8A3E0F9A3E0FAA3E0FBC000C06D
:1007CF0001C002C003900207E0FBA3E0FAA3E0F927
:1007DF009000081235319003DBE0F8A3E0F9A3E0B5
:1007EF00FAA3E0FB1233BDD003D002D001D000EB4F
:1007FF002FFFEA3EFEE93DFDE83CFC9003EB12368D
:10080F00149003DFE0FCA3E0FDA3E0FEA3E0FFA351
:10081F00E0F8A3E0F9A3E0FAA3E0FBC31234DA6037
:10082F00030208C69003B9E0FBA3E0FAA3E0F99036
:10083F0000321231AE7014126F0C9003B9E0FBA3AB
:10084F00E0FAA3E0F990002812357B9003B9E0FBA2
:10085F00A3E0FAA3E0F9900028123531EF24FEFF50
:10086F00EE34FFFEED34FFFDEC34FFFC900207E0A9
:10087F00FBA3E0FAA3E0F99000101235D81233BDB4
:10088F00900207E0FBA3E0FAA3E0F99000181235FD
:10089F00D8EF2BFFEE3AFEED39FDEC38FC9003B9A3
:1008AF00E0FBA3E0FAA3E0F990002C12357B900057
:1008BF0030E4F5F00209B59003B9E0FBA3E0FAA329
:1008CF00E0242CF9E43AFAC002C00112351190036A
:1008DF00DBE0F8A3E0F9A3E0FAA3E02FFFEA3EFE86
:1008EF00E93DFDE83CFCD001D0021235619003EBED
:1008FF00E0F8A3E0F9A3E0FAA3E0FB9003C0E0FC6B
:10090F00A3E0FDA3E0FEA3E0C39BFFEE9AFEED99EB
:10091F00FDEC98FC9003DB1236149003B9E0FBA3B7
:10092F00E0FAA3E0F990002C123531900000E0FBC3
:10093F00A3E0FAA3E0F9126B3B9003EBA3E0FDA356
:10094F00E0FEA3E0FF9003C4E0FBA3E0FAA3E02FD7
:10095F00F9EA3EFAEB3DFBC002C001900000E0F95E
:10096F00A3E0FAA3E09003F2C9F0A3EAF0A3E9F041
:10097F009003DBE0FCA3E0FDA3E0FEA3E0FF900308
:10098F00F5123614D001D002126DA79003DBA3A38A
:10099F00E0FEA3E0FF9003B9E0FBA3E0FAA3E0F9C8
:1009AF00900030EE8FF012339002170E9003B9E0E3
:1009BF00FBA3E0FAA3E0F9900028123531EF24FEF3
:1009CF00FFEE34FFFEED34FFFDEC34FFFC90020729
:1009DF00E0FBA3E0FAA3E0F99000101235D8123330
:1009EF00BD900207E0FBA3E0FAA3E0F99000181214
:1009FF0035D8EF2BFFEE3AFEED39FDEC38FC9002C7
:100A0F0007E0FBA3E0FAA3E0F99000101235D8EF4E
:100A1F002BFFEE3AFEED39FDEC38FC9003B9E0FB0D
:100A2F00A3E0FAA3E0F990002C1235D8C3EF9BFF97
:100A3F00EE9AFEED99FDEC98FC9003DB12361490C4
:100A4F0003B9E0FBA3E0FAA3E0F990002C123531D3
:100A5F009003F31236149003EBA3E0FDA3E0FEA383
:100A6F00E0FF9003C4E0FBA3E0FAA3E02FF9EA3E16
:100A7F00FAEB3D9003F7F0A3EAF0A3E9F09003DB64
:100A8F00E0FCA3E0FDA3E0FEA3E0FF126C019003E6
:100A9F00EBE0F8A3E0F9A3E0FAA3E0FBC000C0018C
:100AAF00C002C003900207E0FBA3E0FAA3E0F990B5
:100ABF0000081235319003DBE0F8A3E0F9A3E0FA68
:100ACF00A3E0FB1233BDD003D002D001D000EB2F37
:100ADF00FFEA3EFEE93DFDE83CFC9003EB123614C5
:100AEF009003B9126F049003B9E0FBA3E0FAA3E0FF
:100AFF00F990002812357B900028123531EF24FE33
:100B0F00FFEE34FFFEED34FFFDEC34FFFC900207E7
:100B1F00E0FBA3E0FAA3E0F99000101235D81233EE
:100B2F00BD900207E0FBA3E0FAA3E0F990001812D2
:100B3F0035D8EF2BFFEE3AFEED39FDEC38FC900384
:100B4F00B9E0FBA3E0FAA3E0F990002C12357B90FB
:100B5F000030E4F5F01233909003EBE0F8A3E0F9E6
:100B6F00A3E0FAA3E0FB9003C0E0FCA3E0FDA3E049
:100B7F00FEA3E0C39BFFEE9AFEED99FDEC98FC906F
:100B8F0003DF1236149003C7E0F8A3E0F9A3E0FAED
:100B9F00A3E0FB9003DFE0FCA3E0FDA3E0FEA3E0F6
:100BAF00FF1234489003E7123614E4FFFEFDFC9069
:100BBF0003E7E0F8A3E0F9A3E0FAA3E0FBD31234D4
:100BCF00DA50030214F39003B9E0FBA3E0FAA3E0B9
:100BDF00F99000281235319003D71236149003D3B1
:100BEF001236149003CB123639000000019003E740
:100BFF00E0FCA3E0FDA3E0FEA3E0FF9003CBE0F851
:100C0F00A3E0F9A3E0FAA3E0FBC31234DA40030236
:100C1F000E0E9003D7E0FCA3E0FDA3E0FEA3E0FFE0
:100C2F00126F129003CF1236149003CFE0FCA3E0A3
:100C3F00FDA3E0FEA3E024FFFFEE34FFFEED34FF43
:100C4F00FDEC34FFFC9003D7E0F8A3E0F9A3E0FA42
:100C5F00A3E0FBC31234DA70149003CFE0FCA3E0DF
:100C6F00FDA3E0FEA3E0FF9003D7020DE99002077A
:100C7F00E0FBA3E0FAA3E0F99000101235D8C00012
:100C8F00C001C002C0039003D3E0F8A3E0F9A3E0D2
:100C9F00FAA3E0FBA3E0FCA3E0FDA3E0FEA3E0C307
:100CAF009BFFEE9AFEED99FDEC98FCEF2401FFE41B
:100CBF003EFEE43DFDE43CFCD003D002D001D00069
:100CCF001233BDC004C005C006C007900207E0FB89
:100CDF00A3E0FAA3E0F99000101235D89003D3E007
:100CEF00FCA3E0FDA3E0FEA3E024FEFFEE34FFFE35
:100CFF00ED34FFFDEC34FFFC1233BD900207E0FB37
:100D0F00A3E0FAA3E0F99000181235D8EF2BFFEE0D
:100D1F003AFEED39FDEC38FC9003F31236149003D4
:100D2F00EBA3E0FDA3E0FEA3E0FF9003C4E0FBA371
:100D3F00E0FAA3E02FF9EA3EFAEB3D9003F7F0A3B8
:100D4F00EAF0A3E9F0D007D006D005D004126C0169
:100D5F009003EBE0F8A3E0F9A3E0FAA3E0FBC000F7
:100D6F00C001C002C0039003D3E0F8A3E0F9A3E0F1
:100D7F00FAA3E0FBA3E0FCA3E0FDA3E0FEA3E0C326
:100D8F009BFFEE9AFEED99FDEC98FCEF2401FFE43A
:100D9F003EFEE43DFDE43CFC9003C7E0F8A3E0F920
:100DAF00A3E0FAA3E0FB1233BDD003D002D001D0F1
:100DBF0000EB2FFFEA3EFEE93DFDE83CFC9003EB24
:100DCF001236149003CFE0FCA3E0FDA3E0FEA3E0F6
:100DDF00FF9003D71236149003D31236149003CB1F
:100DEF00E0FCA3E0FDA3E0FEA3E02401FFE43EFE50
:100DFF00E43DFDE43CFC9003CB123614020BFC9057
:100E0F0003C7E0F8A3E0F9A3E0FAA3E0FB9003DF48
:100E1F00E0FCA3E0FDA3E0FEA3E0FF123448AC002A
:100E2F00AD01AE02AF039003DB123614E4FFFEFDFB
:100E3F00FC9003DBE0F8A3E0F9A3E0FAA3E0FBD317
:100E4F001234DA50030213619003DBE0FCA3E0FDE0
:100E5F00A3E0FEA3E0FF900207E0FBA3E0FAA3E00C
:100E6F00F99000081235D81234489003DB1236146B
:100E7F009003D7E0FCA3E0FDA3E0FEA3E0FF126F19
:100E8F00129003CF1236149003CFE0FCA3E0FDA322
:100E9F00E0FEA3E024FFFFEE34FFFEED34FFFDEC98
:100EAF0034FFFC9003D7E0F8A3E0F9A3E0FAA3E046
:100EBF00FBC31234DA900207600302105CE0FBA35D
:100ECF00E0FAA3E0F99000101235D8C000C001C0BD
:100EDF0002C0039003D3E0F8A3E0F9A3E0FAA3E084
:100EEF00FBA3E0FCA3E0FDA3E0FEA3E0C39BFFEEAA
:100EFF009AFEED99FDEC98FCEF2401FFE43EFEE431
:100F0F003DFDE43CFCD003D002D001D0001233BD34
:100F1F009003DBE0F8A3E0F9A3E0FAA3E02FFFEAE8
:100F2F003EFEE93DFDE83CFCC004C005C006C0071D
:100F3F00900207E0FBA3E0FAA3E0F990001012354E
:100F4F00D89003D3E0FCA3E0FDA3E0FEA3E024FED2
:100F5F00FFEE34FFFEED34FFFDEC34FFFC1233BD2A
:100F6F00900207E0FBA3E0FAA3E0F9900018123516
:100F7F00D8EF2BFFEE3AFEED39FDEC38FC9003F382
:100F8F001236149003EBA3E0FDA3E0FEA3E0FF9065
:100F9F0003C4E0FBA3E0FAA3E02FF9EA3EFAEB3D2E
:100FAF009003F7F0A3EAF0A3E9F0D007D006D0053D
:100FBF00D004126C019003EBE0F8A3E0F9A3E0FA80
:100FCF00A3E0FBC000C001C002C003900207E0FB1A
:100FDF00A3E0FAA3E0F99000101235D8C000C001C9
:100FEF00C002C0039003D3E0F8A3E0F9A3E0FAA393
:100FFF00E0FBA3E0FCA3E0FDA3E0FEA3E0C39BFFA7
:10100F00EE9AFEED99FDEC98FCEF2401FFE43EFE15
:10101F00E43DFDE43CFCD003D002D001D0001233FC
:10102F00BD9003DBE0F8A3E0F9A3E0FAA3E02FFF04
:10103F00EA3EFEE93DFDE83CFC900207E0FBA3E041
:10104F00FAA3E0F99000081235D802126FE0FBA363
:10105F00E0FAA3E0F99000101235D8C000C001C02B
:10106F0002C0039003D3E0F8A3E0F9A3E0FAA3E0F2
:10107F00FBA3E0FCA3E0FDA3E0FEA3E0C39BFFEE18
:10108F009AFEED99FDEC98FCEF2401FFE43EFEE49F
:10109F003DFDE43CFCD003D002D001D0001233BDA3
:1010AF00C004C005C006C007900207E0FBA3E0FA2A
:1010BF00A3E0F99000101235D89003D3E0FCA3E021
:1010CF00FDA3E0FEA3E024FEFFEE34FFFEED34FFB0
:1010DF00FDEC34FFFC1233BD900207E0FBA3E0FAF6
:1010EF00A3E0F99000181235D8EF2BFFEE3AFEED82
:1010FF0039FDEC38FC9003F31236149003EBA3E0A8
:10110F00FDA3E0FEA3E0FF9003C4E0FBA3E0FAA37E
:10111F00E02FF9EA3EFAEB3D9003F7F0A3EAF0A3D4
:10112F00E9F0D007D006D005D004126C019003EB84
:10113F00E0F8A3E0F9A3E0FAA3E0FBC000C001C010
:10114F0002C0039003D3E0F8A3E0F9A3E0FAA3E011
:10115F00FBA3E0FCA3E0FDA3E0FEA3E0C39BFFEE37
:10116F009AFEED99FDEC98FCEF2401FFE43EFEE4BE
:10117F003DFDE43CFC9003C7E0F8A3E0F9A3E0FADF
:10118F00A3E0FB1233BDD003D002D001D000EB2F70
:10119F00FFEA3EFEE93DFDE83CFC9003EB123614FE
:1011AF00900207E0FBA3E0FAA3E0F99000101235DC
:1011BF00D89003CFE0FCA3E0FDA3E0FEA3E024FE64
:1011CF00FFEE34FFFEED34FFFDEC34FFFC1233BDB8
:1011DF00900207E0FBA3E0FAA3E0F99000181235A4
:1011EF00D8EF2BFFEE3AFEED39FDEC38FC9003F310
:1011FF001236149003EBA3E0FDA3E0FEA3E0FF90F3
:10120F0003C4E0FBA3E0FAA3E02FF9EA3EFAEB3DBB
:10121F009003F7F0A3EAF0A3E9F09003DBE0FCA35F
:10122F00E0FDA3E0FEA3E0FF126C019003EBE0F8FA
:10123F00A3E0F9A3E0FAA3E0FBC000C001C002C025
:10124F0003900207E0FBA3E0FAA3E0F99000081275
:10125F0035319003DBE0F8A3E0F9A3E0FAA3E0FB5C
:10126F001233BDD003D002D001D000EB2FFFEA3EE6
:10127F00FEE93DFDE83CFC9003EB1236149003CFE2
:10128F00E0FCA3E0FDA3E0FEA3E0FF9003B9E0FBC9
:10129F00A3E0FAA3E0F990002812357B900207E053
:1012AF00FBA3E0FAA3E0F99000101235D8EF24FE6B
:1012BF00FFEE34FFFEED34FFFDEC34FFFC1233BDC7
:1012CF00900207E0FBA3E0FAA3E0F99000181235B3
:1012DF00D8EF2BFFEE3AFEED39FDEC38FC9003DB37
:1012EF00E0F8A3E0F9A3E0FAA3E02FFFEA3EFEE95E
:1012FF003DFDE83CFC9003B9E0FBA3E0FAA3E0F965
:10130F0090002C12357B9003EBE0F8A3E0F9A3E0FB
:10131F00FAA3E0FB9003C0E0FCA3E0FDA3E0FEA373
:10132F00E0C39BFFEE9AFEED99FDEC98FC9003DB7A
:10133F00123614E4FFFEFDFC9003DBE0F8A3E0F9A6
:10134F00A3E0FAA3E0FBD31234DA500302170E0224
:10135F00167F900207E0FBA3E0FAA3E0F9900010DC
:10136F001235D8C000C001C002C0039003D3E0F80B
:10137F00A3E0F9A3E0FAA3E0FBA3E0FCA3E0FDA345
:10138F00E0FEA3E0C39BFFEE9AFEED99FDEC98FC07
:10139F00EF2401FFE43EFEE43DFDE43CFCD003D02E
:1013AF0002D001D0001233BDC004C005C006C00773
:1013BF00900207E0FBA3E0FAA3E0F99000101235CA
:1013CF00D89003D3E0FCA3E0FDA3E0FEA3E024FE4E
:1013DF00FFEE34FFFEED34FFFDEC34FFFC1233BDA6
:1013EF00900207E0FBA3E0FAA3E0F9900018123592
:1013FF00D8EF2BFFEE3AFEED39FDEC38FC9003F3FE
:10140F001236149003EBA3E0FDA3E0FEA3E0FF90E0
:10141F0003C4E0FBA3E0FAA3E02FF9EA3EFAEB3DA9
:10142F009003F7F0A3EAF0A3E9F0D007D006D005B8
:10143F00D004126C019003D7E0FCA3E0FDA3E0FE03
:10144F00A3E0FF9003B9E0FBA3E0FAA3E0F990005B
:10145F002812357B9000321231AE70229003D7E004
:10146F00FCA3E0FDA3E0FEA3E0FF126F129003B90F
:10147F00E0FBA3E0FAA3E0F990002812357B90037C
:10148F00B9E0FBA3E0FAA3E0F9900028123531EFA1
:10149F0024FEFFEE34FFFEED34FFFDEC34FFFC9035
:1014AF000207E0FBA3E0FAA3E0F99000101235D891
:1014BF001233BD900207E0FBA3E0FAA3E0F990001E
:1014CF00181235D8EF2BFFEE3AFEED39FDEC38FC54
:1014DF009003B9E0FBA3E0FAA3E0F990002C1235DA
:1014EF007B02170E900207E0FBA3E0FAA3E0F9904E
:1014FF0000081235D89003DFE0FCA3E0FDA3E0FE67
:10150F00A3E0FF1234489003DB1236149003B9E0C6
:10151F00FBA3E0FAA3E0F9900028123531EF24FE87
:10152F00FFEE34FFFEED34FFFDEC34FFFC900207BD
:10153F00E0FBA3E0FAA3E0F99000101235D81233C4
:10154F00BD900207E0FBA3E0FAA3E0F990001812A8
:10155F0035D8EF2BFFEE3AFEED39FDEC38FC90035A
:10156F00F31236149003EBA3E0FDA3E0FEA3E0FF1C
:10157F009003C4E0FBA3E0FAA3E02FF9EA3EFAEBF5
:10158F003D9003F7F0A3EAF0A3E9F09003DBE0FC52
:10159F00A3E0FDA3E0FEA3E0FF126C019003EBE0DC
:1015AF00F8A3E0F9A3E0FAA3E0FBC000C001C0027A
:1015BF00C003900207E0FBA3E0FAA3E0F990000854
:1015CF001235319003DBE0F8A3E0F9A3E0FAA3E0D2
:1015DF00FB1233BDD003D002D001D000EB2FFFEAB6
:1015EF003EFEE93DFDE83CFC9003EB123614900300
:1015FF00B9E0FBA3E0FAA3E0242CF9E43AFAC00225
:10160F00C0011235119003DBE0F8A3E0F9A3E0FA73
:10161F00A3E02FFFEA3EFEE93DFDE83CFCD001D000
:10162F0002123561900207E0FBA3E0FAA3E0F99004
:10163F0000081235D89003DFE0FCA3E0FDA3E0FE25
:10164F00A3E0FF123448AC00AD01AE02AF0390032C
:10165F00DB123614E4FFFEFDFC9003DBE0F8A3E0A1
:10166F00F9A3E0FAA3E0FBD31234DA500302170E0A
:10167F009003B9E0FBA3E0FAA3E0F990002C123538
:10168F0031900000E0FBA3E0FAA3E0F9126B3B906E
:10169F0003EBA3E0FDA3E0FEA3E0FF9003C4E0FB98
:1016AF00A3E0FAA3E02FF9EA3EFAEB3DFBC002C03C
:1016BF0001900000E0F9A3E0FAA3E09003F2C9F073
:1016CF00A3EAF0A3E9F09003DBE0FCA3E0FDA3E0C5
:1016DF00FEA3E0FF9003F5123614D001D002126D75
:1016EF00A79003DBA3A3E0FEA3E0FF9003B9E0FB09
:1016FF00A3E0FAA3E0F9900030EE8FF01233909050
:10170F0003B9E0FBA3E0FAA3E02433F9E43AFAC00B
:10171F0002C0011235119003C0E0F8A3E0F9A3E075
:10172F00FAA3E02FFFEA3EFEE93DFDE83CFCD001C5
:10173F00D0021235619003C0E0FCA3E0FDA3E0FEF0
:03174F00A3E0FF15
:011752002274
:10787E0090043212363900000000900432A3A3E0C7
:10788E00FEA3E0F5828E831231AEFF6045645C602C
:10789E001DEF642F6018EF643A6013EF6422600EE0
:1078AE00EF643C6009EF643E6004EFB47C037F013B
:1078BE0022900432E0FCA3E0FDA3E0FEA3E024014D
:1078CE00FFE43EFEE43DFDE43CFC9004321236142F
:0478DE0080A87F00FF
:0178E2002283
:08653A00E0FBA3E0FAA3E0F985
:0B654200900432EBF0A3EAF0A3E9F0B4
:10654D00A312363900000000127A5DEF802A900404
:10655D0039A3A3E0FEA3E0FF900432E0FBA3E0FA31
:10656D00A3E0F98F828E831231AEB42022900439CC
:10657D00E0FCA3E0FDA3A3E024FFFFEE34FFFEED5E
:10658D0034FFFDEC34FFFC90043912361480BF90BB
:10659D000439E0FCA3E0FDA3E0FEA3E0FF90043589
:1065AD00E0F8A3E0F9A3E0FAA3E0FBD31234DA504C
:1065BD0063900435A3A3E0FEA3E0FF900432E0FB5B
:1065CD00A3E0FAA3E0F98F828E831231AEFF642B24
:1065DD00601DEF645B6018EF645D6013EF642C6009
:1065ED000EEF64206009EF643B6004EFB43D037F60
:1065FD000122900435E0FCA3E0FDA3E0FEA3E0241E
:10660D0001FFE43EFEE43DFDE43CFC900435123612
:06661D001402659C7F00E1
:016623002254
:08662400E0FBA3E0FAA3E0F99A
:0B662C00900432EBF0A3EAF0A3E9F0C9
:10663700127A5DEF24FFFFEE34FFFEED34FFFDEC31
:1066470034FFFC90043512361490043912363900A1
:10665700000000900432E0FBA3E0FAA3E0F9123156
:1066670095B42E037F0122E4FFFEFDFC900435E084
:10667700F8A3E0F9A3E0FAA3E0FBD31234DA40620F
:10668700900435A3A3E0FEA3E0FF900432E0FBA350
:10669700E0FAA3E0F98F828E831231AEB42E1F90F9
:1066A7000439E0FCA3E0FDA3E0FEA3E02401FFE43E
:1066B7003EFEE43DFDE43CFC9004391236149004A0
:1066C70035E0FCA3E0FDA3E0FEA3E024FFFFEE34EA
:1066D700FFFEED34FFFDEC34FFFC90043512361459
:1066E7008085E47F01FEFDFC900439E0F8A3E0F922
:1066F700A3E0FAA3E0FBD31234DA40037F01227F41
:016707000091
:01670800226E
:084B7500E0FBA3E0FAA3E0F964
:0B4B7D00900432EBF0A3EAF0A3E9F093
:104B8800127A5DEF24FFFFEE34FFFEED34FFFDECFB
:104B980034FFFC9004351236149004397402F0A3E3
:104BA800F0900435A3A3E0FEA3E0FF900432E0FBFD
:104BB800A3E0FAA3E0F98F828E831231AE642E70DF
:104BC80003024C8EE4FFFEFDFC900435E0F8A3E000
:104BD800F9A3E0FAA3E0FBD31234DA5003024C8EB7
:104BE800900435A3A3E0FEA3E0FF900432E0FBA30A
:104BF800E0FAA3E0F98F828E831231AEFF3395E09D
:104C0800FEC3EF9461EE64809480401AD3EF947AE7
:104C1800EE64809480500F900439E070037FFF2287
:104C28009004397401F0900435A3A3E0FEA3E0F5E5
:104C3800828E831231AEFF3395E0FEC3EF9441EECE
:104C480064809480401BD3EF945AEE648094805023
:104C580010900439E0640170037FFF22E490043966
:104C6800F0900435E0FCA3E0FDA3E0FEA3E024FF00
:104C7800FFEE34FFFEED34FFFDEC34FFFC9004350D
:104C8800123614024BA9E4FFFEFDFC900435E0F84F
:104C9800A3E0F9A3E0FAA3E0FBC31234DA7043906F
:104CA8000432E0FBA3E0FAA3E0F9123195FF339553
:104CB800E0FEC3EF9461EE64809480401AD3EF94D1
:104CC8007AEE64809480500F900439E070037FFF7F
:104CD800229004397401F0900439E0A3F0E49004C0
:104CE80039F0900435A3A3E0FEA3E0FF900432E07E
:104CF800FBA3E0FAA3E0F98F828E831231AEB42EC3
:104D08000C900435E0FCA3E0FDA3024DBDE4FFFEDA
:104D1800FDFC900435E0F8A3E0F9A3E0FAA3E0FB7A
:104D2800D31234DA5003024DD7900435A3A3E0FE22
:104D3800A3E0FF900432E0FBA3E0FAA3E0F98F823E
:104D48008E831231AEFF3395E0FEC3EF9461EE64BB
:104D5800809480401AD3EF947AEE64809480500F48
:104D680090043AE070037FFF2290043A7401F090B7
:104D78000435A3A3E0FEA3E0F5828E831231AEFFD3
:104D88003395E0FEC3EF9441EE64809480401BD3DA
:104D9800EF945AEE64809480501090043AE06401D5
:104DA80070037FFF22E490043AF0900435E0FCA3FE
:104DB800E0FDA3E0FEA3E024FFFFEE34FFFEED34A8
:104DC800FFFDEC34FFFC900435123614024D1590AB
:104DD800043AE06402704A900432E0FBA3E0FAA3CC
:104DE800E0F9123195FF3395E0FEC3EF9461EE646C
:104DF8008094804011D3EF947AEE648094805006BA
:104E080090043A7401F0C3EF9441EE6480948040BA
:104E180010D3EF945AEE648094805005E490043ADD
:0D4E2800F0900439E0C454F0FFA3E04FFF08
:014E3500225A
:0860D100E0FBA3E0FAA3E0F9F3
:0B60D900900432EBF0A3EAF0A3E9F022
:1060E400E4A3F0A3F0A3F0A3F0A3F0127A5D80413F
:1060F40090043AA3A3E0FEA3E024FFFFEE34FFFEE6
:10610400900432E0FBA3E0FAA3E0F98F828E8312BD
:1061140031AEB4202490043AE0FCA3E0FDA3E0FEF9
:10612400A3E024FFFFEE34FFFEED34FFFDEC34FF6B
:10613400FC90043A12361480B7E47F0CFEFDFC9008
:10614400043AE0F8A3E0F9A3E0FAA3E0FBD31234A5
:10615400DA40037F012290043AA3A3A3E01490043D
:1061640037F0900437E0FFD3940074809480402C7F
:10617400900432E0FBA3E0FAA3E0F98F8275830078
:106184001231AEB42E0E900437E0900435F0A374AF
:1061940001F08008900437E014F080C6900436E0E3
:1061A400702990043AA3A3A3E0FF900438F0E4A379
:1061B400F0D3EF940074809480400DD3EF9408746E
:1061C40080948050037F00227F0122900435E0FBFD
:1061D400900438F0FA90043AA3A3A3E0FFEB04FE82
:1061E400C3EF9E900439F0EAFFD394007480948046
:1061F4004016D3EF940874809480500CE094037498
:0A62040080948050037F00227F0188
:01620E00226D
:0B5A2C00900432EBF0A3EAF0A3E9F0D5
:105A3700E4900438F0A37407F0A3740AF0900432DA
:105A4700E0FBA3E0FAA3E0F9900439E0F58275835F
:105A5700001231AEB42008900439E014F080DE90D3
:105A67000439E004F0900432E0FBA3E0FAA3E0F984
:105A770090043AE0FFF5827583001231AEB420122C
:105A8700C3EF940874809480400890043AE014F0BF
:105A970080D390043AE024F9F0E4900438F09004BD
:105AA70039E0FF900438E0FEC39F5030900432E0A5
:105AB700FBA3E0FAA3E0F98E827583001231AEFFF3
:105AC700900435E0FBA3E0FAA3E0F98E827583002A
:105AD700EF123220900438E004F080C2900435E0E1
:105AE700FBA3E0FAA3E0F98E82758300742E1232CD
:105AF70020E4900438F090043AE0FF900438E0C3C3
:105B07009F5047E0FF2408FDE433FC900432E0FB9C
:105B1700A3E0FAA3E0F98D828C831231AEFEEFFD8C
:105B2700900439E02DFDE433CD2401CD3400FC9001
:105B37000435E0FBA3E0FAA3E0F98D828C83EE1233
:105B47003220900438E004F080AC90043AE0FF90F3
:105B57000439E02FFFE433FE900435E0FBA3E0FABD
:105B6700A3E0F98F828E831231AEB42E068F828E18
:105B770083801790043AE0FF900439E02FFFE43365
:105B8700CF2401CF34008F82F583E41232207F00C7
:015B970022EB
:0B371E009003F3EBF0A3EAF0A3E9F046
:103729009003F9123639000000009003FD12363972
:1037390000000000900004EBF0A3EAF0A3E9F09088
:1037490003F3E0F9A3E0FAA3E0900435C9F0A3EA92
:10375900F0A3E9F09003F6E0FBA3E0FAA3E0F91285
:103769005A2C127A52EF02384F9003F9A3A3E0FEC4
:10377900A3E0FF9003F3E0FBA3E0FAA3E0F98F8253
:103789008E831231AE642E7003023867E4FFFEFDAA
:10379900FC9003F9E0F8A3E0F9A3E0FAA3E0FBD376
:1037A9001234DA50030238679003F6E0FBA3E0FA1B
:1037B900A3E0F990000C1231AE5410607C9003F92B
:1037C900A3A3E0FEA3E0FF9003F3E0FBA3E0FAA3C9
:1037D900E0F98F828E831231AEFF3395E0FEC3EF9D
:1037E9009441EE64809480401FD3EF945AEE648034
:1037F900948050149003F9A3A3E0FEA3E0F5828E10
:10380900831231AE242080109003F9A3A3E0FEA314
:10381900E0F5828E831231AEFFC0079003F9A3A3AE
:10382900E0FEA3E0FF9003F3E0FBA3E0FAA3E0F9D5
:103839008F828E83D0E01232209003F9E0FCA3E05E
:10384900FDA3E0FEA3E024FFFFEE34FFFEED34FF0D
:10385900FDEC34FFFC9003F9123614023772900321
:10386900F6E0FBA3E0FAA3E0F990000C1231AE54A4
:1038790008700302394A9003FD123639000000002E
:103889009003F9E0FCA3E0FDA3E0FEA3E0FFA3E0C1
:10389900F8A3E0F9A3E0FAA3E0FBC31234DA40038A
:1038A90002394A9003FDA3A3E0FEA3E0FF9003F3CE
:1038B900E0FBA3E0FAA3E0F98F828E831231AEFF19
:1038C9003395E0FEC3EF9441EE64809480401FD3AA
:1038D900EF945AEE6480948050149003FDA3A3E002
:1038E900FEA3E0F5828E831231AE2420801090036E
:1038F900FDA3A3E0FEA3E0F5828E831231AEFFC0E3
:10390900079003FDA3A3E0FEA3E0FF9003F3E0FB10
:10391900A3E0FAA3E0F98F828E83D0E012322090DF
:1039290003FDE0FCA3E0FDA3E0FEA3E02401FFE426
:103939003EFEE43DFDE43CFC9003FD1236140238E2
:1039490089127A52EF24FFFFEE34FFFEED34FFFDBA
:10395900EC34FFFC9003F91236149003F6E0FBA354
:10396900E0FAA3E0F990000B1231AE5410602290F6
:1039790003F9A3A3E0FEA3E02401FFE43EFE9003C4
:10398900F3E0FBA3E0FAA3E0F98F828E83E412321D
:10399900209003F6E0FBA3E0FAA3E0F990000B12F4
:1039A90031AEFF9003F3E0FBA3E0FAA3E0F9900046
:1039B9000DEF1232209003F6E0FBA3E0FAA3E02416
:1039C900141258BCE4FBFA7901F81233BDC004C0E3
:1039D90005C006C0079003F6E0FBA3E0FAA3E024C4
:1039E9001A1258BCD003D002D001D000EF2BFFEE41
:1039F9003AFEED39FDEC38FC9003F3E0FBA3E0FA65
:103A0900A3E0F990002012357B9003F6E0FBA3E0D8
:103A1900FAA3E0241CF9E43AFA7D041258C290038F
:103A2900F3E0FBA3E0FAA3E0F990002412357B90C0
:103A390003F61258B39003F91236149003F9A3A3AD
:103A4900A3E0541FFFE4FEFDFC7B02FAF9F81233F0
:103A5900BD9003F3E0FBA3E0FAA3E0F9900010EFB7
:103A69001232209003F9E0FCA3E0FDA3E0FEA3E0FD
:103A7900FF78051234EB9003F91236149003F9A379
:103A8900A3A3E0542FFF90000FEF1232209003F907
:103A9900E0FCA3E0FDA3E0FEA3E0FF78061234EB0F
:103AA9009003F91236149003F9A3A3A3E0541FFF5E
:103AB90090000EEF1232209003F6E0FBA3E0FAA388
:103AC900E0F990000D1231AEFF7E007C007D64129A
:103AD90032549003F3E0FBA3E0FAA3E0F99000105D
:103AE900EF1231DB9003F6E0FBA3E0FAA3E0241028
:103AF9001258BC9003F91236149003F9A3A3A3E05A
:103B0900541FFF9003F3E0FBA3E0FAA3E0F9900050
:103B190014EF1232209003F9E0FCA3E0FDA3E0FECC
:103B2900A3E0FF78051234EB9003F91236149003E1
:103B3900F9A3A3A3E0540FFF900013EF12322090D2
:103B490003F9E0FCA3E0FDA3E0FEA3E0FF78041283
:103B590034EB9003F91236149003F9E0FCA3E0FD6D
:103B6900A3E0FEA3E0547FFFEF24BCFFE4340790F9
:103B790000118FF0123390900020123531900028F7
:103B890012357B900028123531EC4D4E4F60549020
:103B990003F3E0FBA3E0FAA3E0F990002812353122
:103BA900EF24FEFFEE34FFFEED34FFFDEC34FFFCA5
:103BB900900207E0FBA3E0FAA3E0F99000101235A8
:103BC900D81233BD900207E0FBA3E0FAA3E0F99015
:103BD90000181235D8EF2BFFEE3AFEED39FDEC381F
:103BE900FC8005E4FFFEFDFC9003F3E0FBA3E0FA93
:103BF900A3E0F990002C12357B900030E4F5F01227
:103C09003390900033123684000000009000201297
:103C19003531EC4D4E4F60047F0080027F019003E7
:103C2900F3E0FBA3E0FAA3E0F9900032EF123220AF
:023C39007F000A
:013C3B002266
:0B8463009003F3EBF0A3EAF0A3E9F0B4
:10846E00E4FF9003F3E0FBA3E0FAA3E0F98F82753B
:10847E0083001231AEFE600E642A6004EEB43F0338
:08848E007F01220F80DC7F005A
:0184960022C3
:106A7300900454F0A37404F0A3743CF0900438E041
:0F6A8300900457F0900435E0FBA3E0FAA3E0F98C
:0B6A9200900451EBF0A3EAF0A3E9F040
:106A9D00900457E0A3F0E4A3F0127A5D90045AEF4E
:106AAD00F0900454127A55AC0790045AE0FE90040D
:106ABD0058E0FDC39E5065A3E0FEC39C505E90045C
:106ACD0054E0FBA3E0FAA3E0F98E82758300123146
:106ADD00AEFE900451E0FBA3E0FAA3E0F98D8275C0
:106AED0083001231AE6E601B900454E0FBA3E0FAFC
:106AFD00A3E0F9900459E0FEF5827583001231AEE2
:106B0D00B43F0C900458E004F0A3E004F0809A9098
:106B1D000458E0C39E04F0E4A3F0808D900459E086
:0D6B2D00B50408900458E0C39CFF227FFFD0
:016B3A002238
:08550400E0FBA3E0FAA3E0F9CB
:0B550C00900432EBF0A3EAF0A3E9F0FA
:10551700E4900438F0A3F0900435127A5590043AD9
:10552700EFF0900432127A5590043BEFF0E49004C8
:1055370050F090043BE0FF900439E0FEC39F506FAA
:10554700900432E0FBA3E0FAA3E0F98E82758300B2
:105557001231AEFE642A6057EEFD3395E0FCC3EDD1
:105567009461EC64809480401CD3ED947AEC648061
:1055770094805011900439E0F5827583001231AEA2
:1055870024E0FE800D900439E0F582758300123126
:10559700AEFE900450E0243CF582E43404F583EE3B
:1055A700F0900450E004F0900439E004F080839018
:1055B7000432E0FBA3E0FAA3E0F9900439E0F582B6
:1055C7007583001231AE700A90043AE06F60037F72
:1055D7000122900450E0243CF582E43404F583E48E
:1055E700F090045404F0A37404F0A3743CF0E4A313
:1055F700126A86EF60037F0122900450E09004381E
:10560700F090043BE0FF900439E0FEC39F501E90EA
